{
	"subcurrency.sol": {
		"Coin": {
			"abi": [
				{
					"inputs": [],
					"stateMutability": "nonpayable",
					"type": "constructor"
				},
				{
					"anonymous": false,
					"inputs": [
						{
							"indexed": true,
							"internalType": "address",
							"name": "owner",
							"type": "address"
						},
						{
							"indexed": true,
							"internalType": "address",
							"name": "spender",
							"type": "address"
						},
						{
							"indexed": false,
							"internalType": "uint256",
							"name": "amount",
							"type": "uint256"
						}
					],
					"name": "Approval",
					"type": "event"
				},
				{
					"anonymous": false,
					"inputs": [
						{
							"indexed": true,
							"internalType": "address",
							"name": "from",
							"type": "address"
						},
						{
							"indexed": false,
							"internalType": "uint256",
							"name": "amount",
							"type": "uint256"
						}
					],
					"name": "Burn",
					"type": "event"
				},
				{
					"anonymous": false,
					"inputs": [
						{
							"indexed": true,
							"internalType": "address",
							"name": "to",
							"type": "address"
						},
						{
							"indexed": false,
							"internalType": "uint256",
							"name": "amount",
							"type": "uint256"
						}
					],
					"name": "Mint",
					"type": "event"
				},
				{
					"anonymous": false,
					"inputs": [
						{
							"indexed": true,
							"internalType": "address",
							"name": "oldMinter",
							"type": "address"
						},
						{
							"indexed": true,
							"internalType": "address",
							"name": "newMinter",
							"type": "address"
						}
					],
					"name": "OwnershipTransferred",
					"type": "event"
				},
				{
					"anonymous": false,
					"inputs": [
						{
							"indexed": true,
							"internalType": "address",
							"name": "from",
							"type": "address"
						},
						{
							"indexed": true,
							"internalType": "address",
							"name": "to",
							"type": "address"
						},
						{
							"indexed": false,
							"internalType": "uint256",
							"name": "amount",
							"type": "uint256"
						}
					],
					"name": "Sent",
					"type": "event"
				},
				{
					"inputs": [
						{
							"internalType": "address",
							"name": "",
							"type": "address"
						},
						{
							"internalType": "address",
							"name": "",
							"type": "address"
						}
					],
					"name": "allowances",
					"outputs": [
						{
							"internalType": "uint256",
							"name": "",
							"type": "uint256"
						}
					],
					"stateMutability": "view",
					"type": "function"
				},
				{
					"inputs": [
						{
							"internalType": "address",
							"name": "spender",
							"type": "address"
						},
						{
							"internalType": "uint256",
							"name": "amount",
							"type": "uint256"
						}
					],
					"name": "approve",
					"outputs": [],
					"stateMutability": "nonpayable",
					"type": "function"
				},
				{
					"inputs": [
						{
							"internalType": "address",
							"name": "",
							"type": "address"
						}
					],
					"name": "balances",
					"outputs": [
						{
							"internalType": "uint256",
							"name": "",
							"type": "uint256"
						}
					],
					"stateMutability": "view",
					"type": "function"
				},
				{
					"inputs": [
						{
							"internalType": "uint256",
							"name": "amount",
							"type": "uint256"
						}
					],
					"name": "burn",
					"outputs": [],
					"stateMutability": "nonpayable",
					"type": "function"
				},
				{
					"inputs": [
						{
							"internalType": "address",
							"name": "receiver",
							"type": "address"
						},
						{
							"internalType": "uint256",
							"name": "amount",
							"type": "uint256"
						}
					],
					"name": "mint",
					"outputs": [],
					"stateMutability": "nonpayable",
					"type": "function"
				},
				{
					"inputs": [],
					"name": "minter",
					"outputs": [
						{
							"internalType": "address",
							"name": "",
							"type": "address"
						}
					],
					"stateMutability": "view",
					"type": "function"
				},
				{
					"inputs": [],
					"name": "totalSupply",
					"outputs": [
						{
							"internalType": "uint256",
							"name": "",
							"type": "uint256"
						}
					],
					"stateMutability": "view",
					"type": "function"
				},
				{
					"inputs": [
						{
							"internalType": "address",
							"name": "receiver",
							"type": "address"
						},
						{
							"internalType": "uint256",
							"name": "amount",
							"type": "uint256"
						}
					],
					"name": "transfer",
					"outputs": [],
					"stateMutability": "nonpayable",
					"type": "function"
				},
				{
					"inputs": [
						{
							"internalType": "address",
							"name": "owner",
							"type": "address"
						},
						{
							"internalType": "address",
							"name": "receiver",
							"type": "address"
						},
						{
							"internalType": "uint256",
							"name": "amount",
							"type": "uint256"
						}
					],
					"name": "transferFrom",
					"outputs": [],
					"stateMutability": "nonpayable",
					"type": "function"
				},
				{
					"inputs": [
						{
							"internalType": "address",
							"name": "newMinter",
							"type": "address"
						}
					],
					"name": "transferOwnership",
					"outputs": [],
					"stateMutability": "nonpayable",
					"type": "function"
				}
			],
			"devdoc": {
				"kind": "dev",
				"methods": {},
				"version": 1
			},
			"evm": {
				"assembly": "    /* \"subcurrency.sol\":60:2861  contract Coin {... */\n  mstore(0x40, 0x80)\n    /* \"subcurrency.sol\":792:844  constructor() {... */\n  callvalue\n  dup1\n  iszero\n  tag_1\n  jumpi\n  0x00\n  dup1\n  revert\ntag_1:\n  pop\n    /* \"subcurrency.sol\":826:836  msg.sender */\n  caller\n    /* \"subcurrency.sol\":817:823  minter */\n  0x00\n  dup1\n    /* \"subcurrency.sol\":817:836  minter = msg.sender */\n  0x0100\n  exp\n  dup2\n  sload\n  dup2\n  0xffffffffffffffffffffffffffffffffffffffff\n  mul\n  not\n  and\n  swap1\n  dup4\n  0xffffffffffffffffffffffffffffffffffffffff\n  and\n  mul\n  or\n  swap1\n  sstore\n  pop\n    /* \"subcurrency.sol\":60:2861  contract Coin {... */\n  dataSize(sub_0)\n  dup1\n  dataOffset(sub_0)\n  0x00\n  codecopy\n  0x00\n  return\nstop\n\nsub_0: assembly {\n        /* \"subcurrency.sol\":60:2861  contract Coin {... */\n      mstore(0x40, 0x80)\n      callvalue\n      dup1\n      iszero\n      tag_1\n      jumpi\n      0x00\n      dup1\n      revert\n    tag_1:\n      pop\n      jumpi(tag_2, lt(calldatasize, 0x04))\n      shr(0xe0, calldataload(0x00))\n      dup1\n      0x40c10f19\n      gt\n      tag_13\n      jumpi\n      dup1\n      0x40c10f19\n      eq\n      tag_8\n      jumpi\n      dup1\n      0x42966c68\n      eq\n      tag_9\n      jumpi\n      dup1\n      0x55b6ed5c\n      eq\n      tag_10\n      jumpi\n      dup1\n      0xa9059cbb\n      eq\n      tag_11\n      jumpi\n      dup1\n      0xf2fde38b\n      eq\n      tag_12\n      jumpi\n      jump(tag_2)\n    tag_13:\n      dup1\n      0x07546172\n      eq\n      tag_3\n      jumpi\n      dup1\n      0x095ea7b3\n      eq\n      tag_4\n      jumpi\n      dup1\n      0x18160ddd\n      eq\n      tag_5\n      jumpi\n      dup1\n      0x23b872dd\n      eq\n      tag_6\n      jumpi\n      dup1\n      0x27e235e3\n      eq\n      tag_7\n      jumpi\n    tag_2:\n      0x00\n      dup1\n      revert\n        /* \"subcurrency.sol\":105:126  address public minter */\n    tag_3:\n      tag_14\n      tag_15\n      jump\t// in\n    tag_14:\n      mload(0x40)\n      tag_16\n      swap2\n      swap1\n      tag_17\n      jump\t// in\n    tag_16:\n      mload(0x40)\n      dup1\n      swap2\n      sub\n      swap1\n      return\n        /* \"subcurrency.sol\":1842:2068  function approve(address spender, uint amount) public {... */\n    tag_4:\n      tag_18\n      0x04\n      dup1\n      calldatasize\n      sub\n      dup2\n      add\n      swap1\n      tag_19\n      swap2\n      swap1\n      tag_20\n      jump\t// in\n    tag_19:\n      tag_21\n      jump\t// in\n    tag_18:\n      stop\n        /* \"subcurrency.sol\":133:156  uint public totalSupply */\n    tag_5:\n      tag_22\n      tag_23\n      jump\t// in\n    tag_22:\n      mload(0x40)\n      tag_24\n      swap2\n      swap1\n      tag_25\n      jump\t// in\n    tag_24:\n      mload(0x40)\n      dup1\n      swap2\n      sub\n      swap1\n      return\n        /* \"subcurrency.sol\":2118:2586  function transferFrom(address owner, address receiver, uint amount) public {... */\n    tag_6:\n      tag_26\n      0x04\n      dup1\n      calldatasize\n      sub\n      dup2\n      add\n      swap1\n      tag_27\n      swap2\n      swap1\n      tag_28\n      jump\t// in\n    tag_27:\n      tag_29\n      jump\t// in\n    tag_26:\n      stop\n        /* \"subcurrency.sol\":163:203  mapping(address => uint) public balances */\n    tag_7:\n      tag_30\n      0x04\n      dup1\n      calldatasize\n      sub\n      dup2\n      add\n      swap1\n      tag_31\n      swap2\n      swap1\n      tag_32\n      jump\t// in\n    tag_31:\n      tag_33\n      jump\t// in\n    tag_30:\n      mload(0x40)\n      tag_34\n      swap2\n      swap1\n      tag_25\n      jump\t// in\n    tag_34:\n      mload(0x40)\n      dup1\n      swap2\n      sub\n      swap1\n      return\n        /* \"subcurrency.sol\":875:1116  function mint(address receiver, uint amount) public onlyMinter {... */\n    tag_8:\n      tag_35\n      0x04\n      dup1\n      calldatasize\n      sub\n      dup2\n      add\n      swap1\n      tag_36\n      swap2\n      swap1\n      tag_20\n      jump\t// in\n    tag_36:\n      tag_37\n      jump\t// in\n    tag_35:\n      stop\n        /* \"subcurrency.sol\":1161:1398  function burn(uint amount) public {... */\n    tag_9:\n      tag_38\n      0x04\n      dup1\n      calldatasize\n      sub\n      dup2\n      add\n      swap1\n      tag_39\n      swap2\n      swap1\n      tag_40\n      jump\t// in\n    tag_39:\n      tag_41\n      jump\t// in\n    tag_38:\n      stop\n        /* \"subcurrency.sol\":210:272  mapping(address => mapping(address => uint)) public allowances */\n    tag_10:\n      tag_42\n      0x04\n      dup1\n      calldatasize\n      sub\n      dup2\n      add\n      swap1\n      tag_43\n      swap2\n      swap1\n      tag_44\n      jump\t// in\n    tag_43:\n      tag_45\n      jump\t// in\n    tag_42:\n      mload(0x40)\n      tag_46\n      swap2\n      swap1\n      tag_25\n      jump\t// in\n    tag_46:\n      mload(0x40)\n      dup1\n      swap2\n      sub\n      swap1\n      return\n        /* \"subcurrency.sol\":1449:1778  function transfer(address receiver, uint amount) public {... */\n    tag_11:\n      tag_47\n      0x04\n      dup1\n      calldatasize\n      sub\n      dup2\n      add\n      swap1\n      tag_48\n      swap2\n      swap1\n      tag_20\n      jump\t// in\n    tag_48:\n      tag_49\n      jump\t// in\n    tag_47:\n      stop\n        /* \"subcurrency.sol\":2640:2858  function transferOwnership(address newMinter) public onlyMinter {... */\n    tag_12:\n      tag_50\n      0x04\n      dup1\n      calldatasize\n      sub\n      dup2\n      add\n      swap1\n      tag_51\n      swap2\n      swap1\n      tag_32\n      jump\t// in\n    tag_51:\n      tag_52\n      jump\t// in\n    tag_50:\n      stop\n        /* \"subcurrency.sol\":105:126  address public minter */\n    tag_15:\n      0x00\n      dup1\n      sload\n      swap1\n      0x0100\n      exp\n      swap1\n      div\n      0xffffffffffffffffffffffffffffffffffffffff\n      and\n      dup2\n      jump\t// out\n        /* \"subcurrency.sol\":1842:2068  function approve(address spender, uint amount) public {... */\n    tag_21:\n        /* \"subcurrency.sol\":1934:1935  0 */\n      0x00\n        /* \"subcurrency.sol\":1915:1936  spender != address(0) */\n      0xffffffffffffffffffffffffffffffffffffffff\n      and\n        /* \"subcurrency.sol\":1915:1922  spender */\n      dup3\n        /* \"subcurrency.sol\":1915:1936  spender != address(0) */\n      0xffffffffffffffffffffffffffffffffffffffff\n      and\n      sub\n        /* \"subcurrency.sol\":1907:1956  require(spender != address(0), \"Invalid address\") */\n      tag_54\n      jumpi\n      mload(0x40)\n      0x08c379a000000000000000000000000000000000000000000000000000000000\n      dup2\n      mstore\n      0x04\n      add\n      tag_55\n      swap1\n      tag_56\n      jump\t// in\n    tag_55:\n      mload(0x40)\n      dup1\n      swap2\n      sub\n      swap1\n      revert\n    tag_54:\n        /* \"subcurrency.sol\":2001:2007  amount */\n      dup1\n        /* \"subcurrency.sol\":1967:1977  allowances */\n      0x03\n        /* \"subcurrency.sol\":1967:1989  allowances[msg.sender] */\n      0x00\n        /* \"subcurrency.sol\":1978:1988  msg.sender */\n      caller\n        /* \"subcurrency.sol\":1967:1989  allowances[msg.sender] */\n      0xffffffffffffffffffffffffffffffffffffffff\n      and\n      0xffffffffffffffffffffffffffffffffffffffff\n      and\n      dup2\n      mstore\n      0x20\n      add\n      swap1\n      dup2\n      mstore\n      0x20\n      add\n      0x00\n      keccak256\n        /* \"subcurrency.sol\":1967:1998  allowances[msg.sender][spender] */\n      0x00\n        /* \"subcurrency.sol\":1990:1997  spender */\n      dup5\n        /* \"subcurrency.sol\":1967:1998  allowances[msg.sender][spender] */\n      0xffffffffffffffffffffffffffffffffffffffff\n      and\n      0xffffffffffffffffffffffffffffffffffffffff\n      and\n      dup2\n      mstore\n      0x20\n      add\n      swap1\n      dup2\n      mstore\n      0x20\n      add\n      0x00\n      keccak256\n        /* \"subcurrency.sol\":1967:2007  allowances[msg.sender][spender] = amount */\n      dup2\n      swap1\n      sstore\n      pop\n        /* \"subcurrency.sol\":2044:2051  spender */\n      dup2\n        /* \"subcurrency.sol\":2023:2060  Approval(msg.sender, spender, amount) */\n      0xffffffffffffffffffffffffffffffffffffffff\n      and\n        /* \"subcurrency.sol\":2032:2042  msg.sender */\n      caller\n        /* \"subcurrency.sol\":2023:2060  Approval(msg.sender, spender, amount) */\n      0xffffffffffffffffffffffffffffffffffffffff\n      and\n      0x8c5be1e5ebec7d5bd14f71427d1e84f3dd0314c0f7b2291e5b200ac8c7c3b925\n        /* \"subcurrency.sol\":2053:2059  amount */\n      dup4\n        /* \"subcurrency.sol\":2023:2060  Approval(msg.sender, spender, amount) */\n      mload(0x40)\n      tag_57\n      swap2\n      swap1\n      tag_25\n      jump\t// in\n    tag_57:\n      mload(0x40)\n      dup1\n      swap2\n      sub\n      swap1\n      log3\n        /* \"subcurrency.sol\":1842:2068  function approve(address spender, uint amount) public {... */\n      pop\n      pop\n      jump\t// out\n        /* \"subcurrency.sol\":133:156  uint public totalSupply */\n    tag_23:\n      sload(0x01)\n      dup2\n      jump\t// out\n        /* \"subcurrency.sol\":2118:2586  function transferFrom(address owner, address receiver, uint amount) public {... */\n    tag_29:\n        /* \"subcurrency.sol\":2232:2233  0 */\n      0x00\n        /* \"subcurrency.sol\":2212:2234  receiver != address(0) */\n      0xffffffffffffffffffffffffffffffffffffffff\n      and\n        /* \"subcurrency.sol\":2212:2220  receiver */\n      dup3\n        /* \"subcurrency.sol\":2212:2234  receiver != address(0) */\n      0xffffffffffffffffffffffffffffffffffffffff\n      and\n      sub\n        /* \"subcurrency.sol\":2204:2254  require(receiver != address(0), \"Invalid address\") */\n      tag_59\n      jumpi\n      mload(0x40)\n      0x08c379a000000000000000000000000000000000000000000000000000000000\n      dup2\n      mstore\n      0x04\n      add\n      tag_60\n      swap1\n      tag_56\n      jump\t// in\n    tag_60:\n      mload(0x40)\n      dup1\n      swap2\n      sub\n      swap1\n      revert\n    tag_59:\n        /* \"subcurrency.sol\":2306:2312  amount */\n      dup1\n        /* \"subcurrency.sol\":2273:2283  allowances */\n      0x03\n        /* \"subcurrency.sol\":2273:2290  allowances[owner] */\n      0x00\n        /* \"subcurrency.sol\":2284:2289  owner */\n      dup6\n        /* \"subcurrency.sol\":2273:2290  allowances[owner] */\n      0xffffffffffffffffffffffffffffffffffffffff\n      and\n      0xffffffffffffffffffffffffffffffffffffffff\n      and\n      dup2\n      mstore\n      0x20\n      add\n      swap1\n      dup2\n      mstore\n      0x20\n      add\n      0x00\n      keccak256\n        /* \"subcurrency.sol\":2273:2302  allowances[owner][msg.sender] */\n      0x00\n        /* \"subcurrency.sol\":2291:2301  msg.sender */\n      caller\n        /* \"subcurrency.sol\":2273:2302  allowances[owner][msg.sender] */\n      0xffffffffffffffffffffffffffffffffffffffff\n      and\n      0xffffffffffffffffffffffffffffffffffffffff\n      and\n      dup2\n      mstore\n      0x20\n      add\n      swap1\n      dup2\n      mstore\n      0x20\n      add\n      0x00\n      keccak256\n      sload\n        /* \"subcurrency.sol\":2273:2312  allowances[owner][msg.sender] >= amount */\n      lt\n      iszero\n        /* \"subcurrency.sol\":2265:2335  require(allowances[owner][msg.sender] >= amount, \"Allowance exceeded\") */\n      tag_61\n      jumpi\n      mload(0x40)\n      0x08c379a000000000000000000000000000000000000000000000000000000000\n      dup2\n      mstore\n      0x04\n      add\n      tag_62\n      swap1\n      tag_63\n      jump\t// in\n    tag_62:\n      mload(0x40)\n      dup1\n      swap2\n      sub\n      swap1\n      revert\n    tag_61:\n        /* \"subcurrency.sol\":2373:2379  amount */\n      dup1\n        /* \"subcurrency.sol\":2354:2362  balances */\n      0x02\n        /* \"subcurrency.sol\":2354:2369  balances[owner] */\n      0x00\n        /* \"subcurrency.sol\":2363:2368  owner */\n      dup6\n        /* \"subcurrency.sol\":2354:2369  balances[owner] */\n      0xffffffffffffffffffffffffffffffffffffffff\n      and\n      0xffffffffffffffffffffffffffffffffffffffff\n      and\n      dup2\n      mstore\n      0x20\n      add\n      swap1\n      dup2\n      mstore\n      0x20\n      add\n      0x00\n      keccak256\n      sload\n        /* \"subcurrency.sol\":2354:2379  balances[owner] >= amount */\n      lt\n      iszero\n        /* \"subcurrency.sol\":2346:2404  require(balances[owner] >= amount, \"Insufficient balance\") */\n      tag_64\n      jumpi\n      mload(0x40)\n      0x08c379a000000000000000000000000000000000000000000000000000000000\n      dup2\n      mstore\n      0x04\n      add\n      tag_65\n      swap1\n      tag_66\n      jump\t// in\n    tag_65:\n      mload(0x40)\n      dup1\n      swap2\n      sub\n      swap1\n      revert\n    tag_64:\n        /* \"subcurrency.sol\":2436:2442  amount */\n      dup1\n        /* \"subcurrency.sol\":2417:2425  balances */\n      0x02\n        /* \"subcurrency.sol\":2417:2432  balances[owner] */\n      0x00\n        /* \"subcurrency.sol\":2426:2431  owner */\n      dup6\n        /* \"subcurrency.sol\":2417:2432  balances[owner] */\n      0xffffffffffffffffffffffffffffffffffffffff\n      and\n      0xffffffffffffffffffffffffffffffffffffffff\n      and\n      dup2\n      mstore\n      0x20\n      add\n      swap1\n      dup2\n      mstore\n      0x20\n      add\n      0x00\n      keccak256\n      0x00\n        /* \"subcurrency.sol\":2417:2442  balances[owner] -= amount */\n      dup3\n      dup3\n      sload\n      tag_67\n      swap2\n      swap1\n      tag_68\n      jump\t// in\n    tag_67:\n      swap3\n      pop\n      pop\n      dup2\n      swap1\n      sstore\n      pop\n        /* \"subcurrency.sol\":2486:2492  amount */\n      dup1\n        /* \"subcurrency.sol\":2453:2463  allowances */\n      0x03\n        /* \"subcurrency.sol\":2453:2470  allowances[owner] */\n      0x00\n        /* \"subcurrency.sol\":2464:2469  owner */\n      dup6\n        /* \"subcurrency.sol\":2453:2470  allowances[owner] */\n      0xffffffffffffffffffffffffffffffffffffffff\n      and\n      0xffffffffffffffffffffffffffffffffffffffff\n      and\n      dup2\n      mstore\n      0x20\n      add\n      swap1\n      dup2\n      mstore\n      0x20\n      add\n      0x00\n      keccak256\n        /* \"subcurrency.sol\":2453:2482  allowances[owner][msg.sender] */\n      0x00\n        /* \"subcurrency.sol\":2471:2481  msg.sender */\n      caller\n        /* \"subcurrency.sol\":2453:2482  allowances[owner][msg.sender] */\n      0xffffffffffffffffffffffffffffffffffffffff\n      and\n      0xffffffffffffffffffffffffffffffffffffffff\n      and\n      dup2\n      mstore\n      0x20\n      add\n      swap1\n      dup2\n      mstore\n      0x20\n      add\n      0x00\n      keccak256\n      0x00\n        /* \"subcurrency.sol\":2453:2492  allowances[owner][msg.sender] -= amount */\n      dup3\n      dup3\n      sload\n      tag_69\n      swap2\n      swap1\n      tag_68\n      jump\t// in\n    tag_69:\n      swap3\n      pop\n      pop\n      dup2\n      swap1\n      sstore\n      pop\n        /* \"subcurrency.sol\":2525:2531  amount */\n      dup1\n        /* \"subcurrency.sol\":2503:2511  balances */\n      0x02\n        /* \"subcurrency.sol\":2503:2521  balances[receiver] */\n      0x00\n        /* \"subcurrency.sol\":2512:2520  receiver */\n      dup5\n        /* \"subcurrency.sol\":2503:2521  balances[receiver] */\n      0xffffffffffffffffffffffffffffffffffffffff\n      and\n      0xffffffffffffffffffffffffffffffffffffffff\n      and\n      dup2\n      mstore\n      0x20\n      add\n      swap1\n      dup2\n      mstore\n      0x20\n      add\n      0x00\n      keccak256\n      0x00\n        /* \"subcurrency.sol\":2503:2531  balances[receiver] += amount */\n      dup3\n      dup3\n      sload\n      tag_70\n      swap2\n      swap1\n      tag_71\n      jump\t// in\n    tag_70:\n      swap3\n      pop\n      pop\n      dup2\n      swap1\n      sstore\n      pop\n        /* \"subcurrency.sol\":2561:2569  receiver */\n      dup2\n        /* \"subcurrency.sol\":2549:2578  Sent(owner, receiver, amount) */\n      0xffffffffffffffffffffffffffffffffffffffff\n      and\n        /* \"subcurrency.sol\":2554:2559  owner */\n      dup4\n        /* \"subcurrency.sol\":2549:2578  Sent(owner, receiver, amount) */\n      0xffffffffffffffffffffffffffffffffffffffff\n      and\n      0x3990db2d31862302a685e8086b5755072a6e2b5b780af1ee81ece35ee3cd3345\n        /* \"subcurrency.sol\":2571:2577  amount */\n      dup4\n        /* \"subcurrency.sol\":2549:2578  Sent(owner, receiver, amount) */\n      mload(0x40)\n      tag_72\n      swap2\n      swap1\n      tag_25\n      jump\t// in\n    tag_72:\n      mload(0x40)\n      dup1\n      swap2\n      sub\n      swap1\n      log3\n        /* \"subcurrency.sol\":2118:2586  function transferFrom(address owner, address receiver, uint amount) public {... */\n      pop\n      pop\n      pop\n      jump\t// out\n        /* \"subcurrency.sol\":163:203  mapping(address => uint) public balances */\n    tag_33:\n      mstore(0x20, 0x02)\n      dup1\n      0x00\n      mstore\n      keccak256(0x00, 0x40)\n      0x00\n      swap2\n      pop\n      swap1\n      pop\n      sload\n      dup2\n      jump\t// out\n        /* \"subcurrency.sol\":875:1116  function mint(address receiver, uint amount) public onlyMinter {... */\n    tag_37:\n        /* \"subcurrency.sol\":714:720  minter */\n      0x00\n      dup1\n      sload\n      swap1\n      0x0100\n      exp\n      swap1\n      div\n      0xffffffffffffffffffffffffffffffffffffffff\n      and\n        /* \"subcurrency.sol\":700:720  msg.sender == minter */\n      0xffffffffffffffffffffffffffffffffffffffff\n      and\n        /* \"subcurrency.sol\":700:710  msg.sender */\n      caller\n        /* \"subcurrency.sol\":700:720  msg.sender == minter */\n      0xffffffffffffffffffffffffffffffffffffffff\n      and\n      eq\n        /* \"subcurrency.sol\":692:764  require(msg.sender == minter, \"Only the minter can perform this action\") */\n      tag_74\n      jumpi\n      mload(0x40)\n      0x08c379a000000000000000000000000000000000000000000000000000000000\n      dup2\n      mstore\n      0x04\n      add\n      tag_75\n      swap1\n      tag_76\n      jump\t// in\n    tag_75:\n      mload(0x40)\n      dup1\n      swap2\n      sub\n      swap1\n      revert\n    tag_74:\n        /* \"subcurrency.sol\":977:978  0 */\n      0x00\n        /* \"subcurrency.sol\":957:979  receiver != address(0) */\n      0xffffffffffffffffffffffffffffffffffffffff\n      and\n        /* \"subcurrency.sol\":957:965  receiver */\n      dup3\n        /* \"subcurrency.sol\":957:979  receiver != address(0) */\n      0xffffffffffffffffffffffffffffffffffffffff\n      and\n      sub\n        /* \"subcurrency.sol\":949:999  require(receiver != address(0), \"Invalid address\") */\n      tag_78\n      jumpi\n      mload(0x40)\n      0x08c379a000000000000000000000000000000000000000000000000000000000\n      dup2\n      mstore\n      0x04\n      add\n      tag_79\n      swap1\n      tag_56\n      jump\t// in\n    tag_79:\n      mload(0x40)\n      dup1\n      swap2\n      sub\n      swap1\n      revert\n    tag_78:\n        /* \"subcurrency.sol\":1032:1038  amount */\n      dup1\n        /* \"subcurrency.sol\":1010:1018  balances */\n      0x02\n        /* \"subcurrency.sol\":1010:1028  balances[receiver] */\n      0x00\n        /* \"subcurrency.sol\":1019:1027  receiver */\n      dup5\n        /* \"subcurrency.sol\":1010:1028  balances[receiver] */\n      0xffffffffffffffffffffffffffffffffffffffff\n      and\n      0xffffffffffffffffffffffffffffffffffffffff\n      and\n      dup2\n      mstore\n      0x20\n      add\n      swap1\n      dup2\n      mstore\n      0x20\n      add\n      0x00\n      keccak256\n      0x00\n        /* \"subcurrency.sol\":1010:1038  balances[receiver] += amount */\n      dup3\n      dup3\n      sload\n      tag_80\n      swap2\n      swap1\n      tag_71\n      jump\t// in\n    tag_80:\n      swap3\n      pop\n      pop\n      dup2\n      swap1\n      sstore\n      pop\n        /* \"subcurrency.sol\":1064:1070  amount */\n      dup1\n        /* \"subcurrency.sol\":1049:1060  totalSupply */\n      0x01\n      0x00\n        /* \"subcurrency.sol\":1049:1070  totalSupply += amount */\n      dup3\n      dup3\n      sload\n      tag_81\n      swap2\n      swap1\n      tag_71\n      jump\t// in\n    tag_81:\n      swap3\n      pop\n      pop\n      dup2\n      swap1\n      sstore\n      pop\n        /* \"subcurrency.sol\":1091:1099  receiver */\n      dup2\n        /* \"subcurrency.sol\":1086:1108  Mint(receiver, amount) */\n      0xffffffffffffffffffffffffffffffffffffffff\n      and\n      0x0f6798a560793a54c3bcfe86a93cde1e73087d944c0ea20544137d4121396885\n        /* \"subcurrency.sol\":1101:1107  amount */\n      dup3\n        /* \"subcurrency.sol\":1086:1108  Mint(receiver, amount) */\n      mload(0x40)\n      tag_82\n      swap2\n      swap1\n      tag_25\n      jump\t// in\n    tag_82:\n      mload(0x40)\n      dup1\n      swap2\n      sub\n      swap1\n      log2\n        /* \"subcurrency.sol\":875:1116  function mint(address receiver, uint amount) public onlyMinter {... */\n      pop\n      pop\n      jump\t// out\n        /* \"subcurrency.sol\":1161:1398  function burn(uint amount) public {... */\n    tag_41:\n        /* \"subcurrency.sol\":1238:1244  amount */\n      dup1\n        /* \"subcurrency.sol\":1214:1222  balances */\n      0x02\n        /* \"subcurrency.sol\":1214:1234  balances[msg.sender] */\n      0x00\n        /* \"subcurrency.sol\":1223:1233  msg.sender */\n      caller\n        /* \"subcurrency.sol\":1214:1234  balances[msg.sender] */\n      0xffffffffffffffffffffffffffffffffffffffff\n      and\n      0xffffffffffffffffffffffffffffffffffffffff\n      and\n      dup2\n      mstore\n      0x20\n      add\n      swap1\n      dup2\n      mstore\n      0x20\n      add\n      0x00\n      keccak256\n      sload\n        /* \"subcurrency.sol\":1214:1244  balances[msg.sender] >= amount */\n      lt\n      iszero\n        /* \"subcurrency.sol\":1206:1277  require(balances[msg.sender] >= amount, \"Insufficient balance to burn\") */\n      tag_84\n      jumpi\n      mload(0x40)\n      0x08c379a000000000000000000000000000000000000000000000000000000000\n      dup2\n      mstore\n      0x04\n      add\n      tag_85\n      swap1\n      tag_86\n      jump\t// in\n    tag_85:\n      mload(0x40)\n      dup1\n      swap2\n      sub\n      swap1\n      revert\n    tag_84:\n        /* \"subcurrency.sol\":1312:1318  amount */\n      dup1\n        /* \"subcurrency.sol\":1288:1296  balances */\n      0x02\n        /* \"subcurrency.sol\":1288:1308  balances[msg.sender] */\n      0x00\n        /* \"subcurrency.sol\":1297:1307  msg.sender */\n      caller\n        /* \"subcurrency.sol\":1288:1308  balances[msg.sender] */\n      0xffffffffffffffffffffffffffffffffffffffff\n      and\n      0xffffffffffffffffffffffffffffffffffffffff\n      and\n      dup2\n      mstore\n      0x20\n      add\n      swap1\n      dup2\n      mstore\n      0x20\n      add\n      0x00\n      keccak256\n      0x00\n        /* \"subcurrency.sol\":1288:1318  balances[msg.sender] -= amount */\n      dup3\n      dup3\n      sload\n      tag_87\n      swap2\n      swap1\n      tag_68\n      jump\t// in\n    tag_87:\n      swap3\n      pop\n      pop\n      dup2\n      swap1\n      sstore\n      pop\n        /* \"subcurrency.sol\":1344:1350  amount */\n      dup1\n        /* \"subcurrency.sol\":1329:1340  totalSupply */\n      0x01\n      0x00\n        /* \"subcurrency.sol\":1329:1350  totalSupply -= amount */\n      dup3\n      dup3\n      sload\n      tag_88\n      swap2\n      swap1\n      tag_68\n      jump\t// in\n    tag_88:\n      swap3\n      pop\n      pop\n      dup2\n      swap1\n      sstore\n      pop\n        /* \"subcurrency.sol\":1371:1381  msg.sender */\n      caller\n        /* \"subcurrency.sol\":1366:1390  Burn(msg.sender, amount) */\n      0xffffffffffffffffffffffffffffffffffffffff\n      and\n      0xcc16f5dbb4873280815c1ee09dbd06736cffcc184412cf7a71a0fdb75d397ca5\n        /* \"subcurrency.sol\":1383:1389  amount */\n      dup3\n        /* \"subcurrency.sol\":1366:1390  Burn(msg.sender, amount) */\n      mload(0x40)\n      tag_89\n      swap2\n      swap1\n      tag_25\n      jump\t// in\n    tag_89:\n      mload(0x40)\n      dup1\n      swap2\n      sub\n      swap1\n      log2\n        /* \"subcurrency.sol\":1161:1398  function burn(uint amount) public {... */\n      pop\n      jump\t// out\n        /* \"subcurrency.sol\":210:272  mapping(address => mapping(address => uint)) public allowances */\n    tag_45:\n      mstore(0x20, 0x03)\n      dup2\n      0x00\n      mstore\n      mstore(0x20, keccak256(0x00, 0x40))\n      dup1\n      0x00\n      mstore\n      keccak256(0x00, 0x40)\n      0x00\n      swap2\n      pop\n      swap2\n      pop\n      pop\n      sload\n      dup2\n      jump\t// out\n        /* \"subcurrency.sol\":1449:1778  function transfer(address receiver, uint amount) public {... */\n    tag_49:\n        /* \"subcurrency.sol\":1544:1545  0 */\n      0x00\n        /* \"subcurrency.sol\":1524:1546  receiver != address(0) */\n      0xffffffffffffffffffffffffffffffffffffffff\n      and\n        /* \"subcurrency.sol\":1524:1532  receiver */\n      dup3\n        /* \"subcurrency.sol\":1524:1546  receiver != address(0) */\n      0xffffffffffffffffffffffffffffffffffffffff\n      and\n      sub\n        /* \"subcurrency.sol\":1516:1566  require(receiver != address(0), \"Invalid address\") */\n      tag_91\n      jumpi\n      mload(0x40)\n      0x08c379a000000000000000000000000000000000000000000000000000000000\n      dup2\n      mstore\n      0x04\n      add\n      tag_92\n      swap1\n      tag_56\n      jump\t// in\n    tag_92:\n      mload(0x40)\n      dup1\n      swap2\n      sub\n      swap1\n      revert\n    tag_91:\n        /* \"subcurrency.sol\":1609:1615  amount */\n      dup1\n        /* \"subcurrency.sol\":1585:1593  balances */\n      0x02\n        /* \"subcurrency.sol\":1585:1605  balances[msg.sender] */\n      0x00\n        /* \"subcurrency.sol\":1594:1604  msg.sender */\n      caller\n        /* \"subcurrency.sol\":1585:1605  balances[msg.sender] */\n      0xffffffffffffffffffffffffffffffffffffffff\n      and\n      0xffffffffffffffffffffffffffffffffffffffff\n      and\n      dup2\n      mstore\n      0x20\n      add\n      swap1\n      dup2\n      mstore\n      0x20\n      add\n      0x00\n      keccak256\n      sload\n        /* \"subcurrency.sol\":1585:1615  balances[msg.sender] >= amount */\n      lt\n      iszero\n        /* \"subcurrency.sol\":1577:1640  require(balances[msg.sender] >= amount, \"Insufficient balance\") */\n      tag_93\n      jumpi\n      mload(0x40)\n      0x08c379a000000000000000000000000000000000000000000000000000000000\n      dup2\n      mstore\n      0x04\n      add\n      tag_94\n      swap1\n      tag_66\n      jump\t// in\n    tag_94:\n      mload(0x40)\n      dup1\n      swap2\n      sub\n      swap1\n      revert\n    tag_93:\n        /* \"subcurrency.sol\":1675:1681  amount */\n      dup1\n        /* \"subcurrency.sol\":1651:1659  balances */\n      0x02\n        /* \"subcurrency.sol\":1651:1671  balances[msg.sender] */\n      0x00\n        /* \"subcurrency.sol\":1660:1670  msg.sender */\n      caller\n        /* \"subcurrency.sol\":1651:1671  balances[msg.sender] */\n      0xffffffffffffffffffffffffffffffffffffffff\n      and\n      0xffffffffffffffffffffffffffffffffffffffff\n      and\n      dup2\n      mstore\n      0x20\n      add\n      swap1\n      dup2\n      mstore\n      0x20\n      add\n      0x00\n      keccak256\n      0x00\n        /* \"subcurrency.sol\":1651:1681  balances[msg.sender] -= amount */\n      dup3\n      dup3\n      sload\n      tag_95\n      swap2\n      swap1\n      tag_68\n      jump\t// in\n    tag_95:\n      swap3\n      pop\n      pop\n      dup2\n      swap1\n      sstore\n      pop\n        /* \"subcurrency.sol\":1714:1720  amount */\n      dup1\n        /* \"subcurrency.sol\":1692:1700  balances */\n      0x02\n        /* \"subcurrency.sol\":1692:1710  balances[receiver] */\n      0x00\n        /* \"subcurrency.sol\":1701:1709  receiver */\n      dup5\n        /* \"subcurrency.sol\":1692:1710  balances[receiver] */\n      0xffffffffffffffffffffffffffffffffffffffff\n      and\n      0xffffffffffffffffffffffffffffffffffffffff\n      and\n      dup2\n      mstore\n      0x20\n      add\n      swap1\n      dup2\n      mstore\n      0x20\n      add\n      0x00\n      keccak256\n      0x00\n        /* \"subcurrency.sol\":1692:1720  balances[receiver] += amount */\n      dup3\n      dup3\n      sload\n      tag_96\n      swap2\n      swap1\n      tag_71\n      jump\t// in\n    tag_96:\n      swap3\n      pop\n      pop\n      dup2\n      swap1\n      sstore\n      pop\n        /* \"subcurrency.sol\":1753:1761  receiver */\n      dup2\n        /* \"subcurrency.sol\":1736:1770  Sent(msg.sender, receiver, amount) */\n      0xffffffffffffffffffffffffffffffffffffffff\n      and\n        /* \"subcurrency.sol\":1741:1751  msg.sender */\n      caller\n        /* \"subcurrency.sol\":1736:1770  Sent(msg.sender, receiver, amount) */\n      0xffffffffffffffffffffffffffffffffffffffff\n      and\n      0x3990db2d31862302a685e8086b5755072a6e2b5b780af1ee81ece35ee3cd3345\n        /* \"subcurrency.sol\":1763:1769  amount */\n      dup4\n        /* \"subcurrency.sol\":1736:1770  Sent(msg.sender, receiver, amount) */\n      mload(0x40)\n      tag_97\n      swap2\n      swap1\n      tag_25\n      jump\t// in\n    tag_97:\n      mload(0x40)\n      dup1\n      swap2\n      sub\n      swap1\n      log3\n        /* \"subcurrency.sol\":1449:1778  function transfer(address receiver, uint amount) public {... */\n      pop\n      pop\n      jump\t// out\n        /* \"subcurrency.sol\":2640:2858  function transferOwnership(address newMinter) public onlyMinter {... */\n    tag_52:\n        /* \"subcurrency.sol\":714:720  minter */\n      0x00\n      dup1\n      sload\n      swap1\n      0x0100\n      exp\n      swap1\n      div\n      0xffffffffffffffffffffffffffffffffffffffff\n      and\n        /* \"subcurrency.sol\":700:720  msg.sender == minter */\n      0xffffffffffffffffffffffffffffffffffffffff\n      and\n        /* \"subcurrency.sol\":700:710  msg.sender */\n      caller\n        /* \"subcurrency.sol\":700:720  msg.sender == minter */\n      0xffffffffffffffffffffffffffffffffffffffff\n      and\n      eq\n        /* \"subcurrency.sol\":692:764  require(msg.sender == minter, \"Only the minter can perform this action\") */\n      tag_99\n      jumpi\n      mload(0x40)\n      0x08c379a000000000000000000000000000000000000000000000000000000000\n      dup2\n      mstore\n      0x04\n      add\n      tag_100\n      swap1\n      tag_76\n      jump\t// in\n    tag_100:\n      mload(0x40)\n      dup1\n      swap2\n      sub\n      swap1\n      revert\n    tag_99:\n        /* \"subcurrency.sol\":2744:2745  0 */\n      0x00\n        /* \"subcurrency.sol\":2723:2746  newMinter != address(0) */\n      0xffffffffffffffffffffffffffffffffffffffff\n      and\n        /* \"subcurrency.sol\":2723:2732  newMinter */\n      dup2\n        /* \"subcurrency.sol\":2723:2746  newMinter != address(0) */\n      0xffffffffffffffffffffffffffffffffffffffff\n      and\n      sub\n        /* \"subcurrency.sol\":2715:2766  require(newMinter != address(0), \"Invalid address\") */\n      tag_102\n      jumpi\n      mload(0x40)\n      0x08c379a000000000000000000000000000000000000000000000000000000000\n      dup2\n      mstore\n      0x04\n      add\n      tag_103\n      swap1\n      tag_56\n      jump\t// in\n    tag_103:\n      mload(0x40)\n      dup1\n      swap2\n      sub\n      swap1\n      revert\n    tag_102:\n        /* \"subcurrency.sol\":2811:2820  newMinter */\n      dup1\n        /* \"subcurrency.sol\":2782:2821  OwnershipTransferred(minter, newMinter) */\n      0xffffffffffffffffffffffffffffffffffffffff\n      and\n        /* \"subcurrency.sol\":2803:2809  minter */\n      0x00\n      dup1\n      sload\n      swap1\n      0x0100\n      exp\n      swap1\n      div\n      0xffffffffffffffffffffffffffffffffffffffff\n      and\n        /* \"subcurrency.sol\":2782:2821  OwnershipTransferred(minter, newMinter) */\n      0xffffffffffffffffffffffffffffffffffffffff\n      and\n      0x8be0079c531659141344cd1fd0a4f28419497f9722a3daafe3b4186f6b6457e0\n      mload(0x40)\n      mload(0x40)\n      dup1\n      swap2\n      sub\n      swap1\n      log3\n        /* \"subcurrency.sol\":2841:2850  newMinter */\n      dup1\n        /* \"subcurrency.sol\":2832:2838  minter */\n      0x00\n      dup1\n        /* \"subcurrency.sol\":2832:2850  minter = newMinter */\n      0x0100\n      exp\n      dup2\n      sload\n      dup2\n      0xffffffffffffffffffffffffffffffffffffffff\n      mul\n      not\n      and\n      swap1\n      dup4\n      0xffffffffffffffffffffffffffffffffffffffff\n      and\n      mul\n      or\n      swap1\n      sstore\n      pop\n        /* \"subcurrency.sol\":2640:2858  function transferOwnership(address newMinter) public onlyMinter {... */\n      pop\n      jump\t// out\n        /* \"#utility.yul\":7:133   */\n    tag_104:\n        /* \"#utility.yul\":44:51   */\n      0x00\n        /* \"#utility.yul\":84:126   */\n      0xffffffffffffffffffffffffffffffffffffffff\n        /* \"#utility.yul\":77:82   */\n      dup3\n        /* \"#utility.yul\":73:127   */\n      and\n        /* \"#utility.yul\":62:127   */\n      swap1\n      pop\n        /* \"#utility.yul\":7:133   */\n      swap2\n      swap1\n      pop\n      jump\t// out\n        /* \"#utility.yul\":139:235   */\n    tag_105:\n        /* \"#utility.yul\":176:183   */\n      0x00\n        /* \"#utility.yul\":205:229   */\n      tag_131\n        /* \"#utility.yul\":223:228   */\n      dup3\n        /* \"#utility.yul\":205:229   */\n      tag_104\n      jump\t// in\n    tag_131:\n        /* \"#utility.yul\":194:229   */\n      swap1\n      pop\n        /* \"#utility.yul\":139:235   */\n      swap2\n      swap1\n      pop\n      jump\t// out\n        /* \"#utility.yul\":241:359   */\n    tag_106:\n        /* \"#utility.yul\":328:352   */\n      tag_133\n        /* \"#utility.yul\":346:351   */\n      dup2\n        /* \"#utility.yul\":328:352   */\n      tag_105\n      jump\t// in\n    tag_133:\n        /* \"#utility.yul\":323:326   */\n      dup3\n        /* \"#utility.yul\":316:353   */\n      mstore\n        /* \"#utility.yul\":241:359   */\n      pop\n      pop\n      jump\t// out\n        /* \"#utility.yul\":365:587   */\n    tag_17:\n        /* \"#utility.yul\":458:462   */\n      0x00\n        /* \"#utility.yul\":496:498   */\n      0x20\n        /* \"#utility.yul\":485:494   */\n      dup3\n        /* \"#utility.yul\":481:499   */\n      add\n        /* \"#utility.yul\":473:499   */\n      swap1\n      pop\n        /* \"#utility.yul\":509:580   */\n      tag_135\n        /* \"#utility.yul\":577:578   */\n      0x00\n        /* \"#utility.yul\":566:575   */\n      dup4\n        /* \"#utility.yul\":562:579   */\n      add\n        /* \"#utility.yul\":553:559   */\n      dup5\n        /* \"#utility.yul\":509:580   */\n      tag_106\n      jump\t// in\n    tag_135:\n        /* \"#utility.yul\":365:587   */\n      swap3\n      swap2\n      pop\n      pop\n      jump\t// out\n        /* \"#utility.yul\":674:791   */\n    tag_108:\n        /* \"#utility.yul\":783:784   */\n      0x00\n        /* \"#utility.yul\":780:781   */\n      dup1\n        /* \"#utility.yul\":773:785   */\n      revert\n        /* \"#utility.yul\":920:1042   */\n    tag_110:\n        /* \"#utility.yul\":993:1017   */\n      tag_140\n        /* \"#utility.yul\":1011:1016   */\n      dup2\n        /* \"#utility.yul\":993:1017   */\n      tag_105\n      jump\t// in\n    tag_140:\n        /* \"#utility.yul\":986:991   */\n      dup2\n        /* \"#utility.yul\":983:1018   */\n      eq\n        /* \"#utility.yul\":973:1036   */\n      tag_141\n      jumpi\n        /* \"#utility.yul\":1032:1033   */\n      0x00\n        /* \"#utility.yul\":1029:1030   */\n      dup1\n        /* \"#utility.yul\":1022:1034   */\n      revert\n        /* \"#utility.yul\":973:1036   */\n    tag_141:\n        /* \"#utility.yul\":920:1042   */\n      pop\n      jump\t// out\n        /* \"#utility.yul\":1048:1187   */\n    tag_111:\n        /* \"#utility.yul\":1094:1099   */\n      0x00\n        /* \"#utility.yul\":1132:1138   */\n      dup2\n        /* \"#utility.yul\":1119:1139   */\n      calldataload\n        /* \"#utility.yul\":1110:1139   */\n      swap1\n      pop\n        /* \"#utility.yul\":1148:1181   */\n      tag_143\n        /* \"#utility.yul\":1175:1180   */\n      dup2\n        /* \"#utility.yul\":1148:1181   */\n      tag_110\n      jump\t// in\n    tag_143:\n        /* \"#utility.yul\":1048:1187   */\n      swap3\n      swap2\n      pop\n      pop\n      jump\t// out\n        /* \"#utility.yul\":1193:1270   */\n    tag_112:\n        /* \"#utility.yul\":1230:1237   */\n      0x00\n        /* \"#utility.yul\":1259:1264   */\n      dup2\n        /* \"#utility.yul\":1248:1264   */\n      swap1\n      pop\n        /* \"#utility.yul\":1193:1270   */\n      swap2\n      swap1\n      pop\n      jump\t// out\n        /* \"#utility.yul\":1276:1398   */\n    tag_113:\n        /* \"#utility.yul\":1349:1373   */\n      tag_146\n        /* \"#utility.yul\":1367:1372   */\n      dup2\n        /* \"#utility.yul\":1349:1373   */\n      tag_112\n      jump\t// in\n    tag_146:\n        /* \"#utility.yul\":1342:1347   */\n      dup2\n        /* \"#utility.yul\":1339:1374   */\n      eq\n        /* \"#utility.yul\":1329:1392   */\n      tag_147\n      jumpi\n        /* \"#utility.yul\":1388:1389   */\n      0x00\n        /* \"#utility.yul\":1385:1386   */\n      dup1\n        /* \"#utility.yul\":1378:1390   */\n      revert\n        /* \"#utility.yul\":1329:1392   */\n    tag_147:\n        /* \"#utility.yul\":1276:1398   */\n      pop\n      jump\t// out\n        /* \"#utility.yul\":1404:1543   */\n    tag_114:\n        /* \"#utility.yul\":1450:1455   */\n      0x00\n        /* \"#utility.yul\":1488:1494   */\n      dup2\n        /* \"#utility.yul\":1475:1495   */\n      calldataload\n        /* \"#utility.yul\":1466:1495   */\n      swap1\n      pop\n        /* \"#utility.yul\":1504:1537   */\n      tag_149\n        /* \"#utility.yul\":1531:1536   */\n      dup2\n        /* \"#utility.yul\":1504:1537   */\n      tag_113\n      jump\t// in\n    tag_149:\n        /* \"#utility.yul\":1404:1543   */\n      swap3\n      swap2\n      pop\n      pop\n      jump\t// out\n        /* \"#utility.yul\":1549:2023   */\n    tag_20:\n        /* \"#utility.yul\":1617:1623   */\n      0x00\n        /* \"#utility.yul\":1625:1631   */\n      dup1\n        /* \"#utility.yul\":1674:1676   */\n      0x40\n        /* \"#utility.yul\":1662:1671   */\n      dup4\n        /* \"#utility.yul\":1653:1660   */\n      dup6\n        /* \"#utility.yul\":1649:1672   */\n      sub\n        /* \"#utility.yul\":1645:1677   */\n      slt\n        /* \"#utility.yul\":1642:1761   */\n      iszero\n      tag_151\n      jumpi\n        /* \"#utility.yul\":1680:1759   */\n      tag_152\n      tag_108\n      jump\t// in\n    tag_152:\n        /* \"#utility.yul\":1642:1761   */\n    tag_151:\n        /* \"#utility.yul\":1800:1801   */\n      0x00\n        /* \"#utility.yul\":1825:1878   */\n      tag_153\n        /* \"#utility.yul\":1870:1877   */\n      dup6\n        /* \"#utility.yul\":1861:1867   */\n      dup3\n        /* \"#utility.yul\":1850:1859   */\n      dup7\n        /* \"#utility.yul\":1846:1868   */\n      add\n        /* \"#utility.yul\":1825:1878   */\n      tag_111\n      jump\t// in\n    tag_153:\n        /* \"#utility.yul\":1815:1878   */\n      swap3\n      pop\n        /* \"#utility.yul\":1771:1888   */\n      pop\n        /* \"#utility.yul\":1927:1929   */\n      0x20\n        /* \"#utility.yul\":1953:2006   */\n      tag_154\n        /* \"#utility.yul\":1998:2005   */\n      dup6\n        /* \"#utility.yul\":1989:1995   */\n      dup3\n        /* \"#utility.yul\":1978:1987   */\n      dup7\n        /* \"#utility.yul\":1974:1996   */\n      add\n        /* \"#utility.yul\":1953:2006   */\n      tag_114\n      jump\t// in\n    tag_154:\n        /* \"#utility.yul\":1943:2006   */\n      swap2\n      pop\n        /* \"#utility.yul\":1898:2016   */\n      pop\n        /* \"#utility.yul\":1549:2023   */\n      swap3\n      pop\n      swap3\n      swap1\n      pop\n      jump\t// out\n        /* \"#utility.yul\":2029:2147   */\n    tag_115:\n        /* \"#utility.yul\":2116:2140   */\n      tag_156\n        /* \"#utility.yul\":2134:2139   */\n      dup2\n        /* \"#utility.yul\":2116:2140   */\n      tag_112\n      jump\t// in\n    tag_156:\n        /* \"#utility.yul\":2111:2114   */\n      dup3\n        /* \"#utility.yul\":2104:2141   */\n      mstore\n        /* \"#utility.yul\":2029:2147   */\n      pop\n      pop\n      jump\t// out\n        /* \"#utility.yul\":2153:2375   */\n    tag_25:\n        /* \"#utility.yul\":2246:2250   */\n      0x00\n        /* \"#utility.yul\":2284:2286   */\n      0x20\n        /* \"#utility.yul\":2273:2282   */\n      dup3\n        /* \"#utility.yul\":2269:2287   */\n      add\n        /* \"#utility.yul\":2261:2287   */\n      swap1\n      pop\n        /* \"#utility.yul\":2297:2368   */\n      tag_158\n        /* \"#utility.yul\":2365:2366   */\n      0x00\n        /* \"#utility.yul\":2354:2363   */\n      dup4\n        /* \"#utility.yul\":2350:2367   */\n      add\n        /* \"#utility.yul\":2341:2347   */\n      dup5\n        /* \"#utility.yul\":2297:2368   */\n      tag_115\n      jump\t// in\n    tag_158:\n        /* \"#utility.yul\":2153:2375   */\n      swap3\n      swap2\n      pop\n      pop\n      jump\t// out\n        /* \"#utility.yul\":2381:3000   */\n    tag_28:\n        /* \"#utility.yul\":2458:2464   */\n      0x00\n        /* \"#utility.yul\":2466:2472   */\n      dup1\n        /* \"#utility.yul\":2474:2480   */\n      0x00\n        /* \"#utility.yul\":2523:2525   */\n      0x60\n        /* \"#utility.yul\":2511:2520   */\n      dup5\n        /* \"#utility.yul\":2502:2509   */\n      dup7\n        /* \"#utility.yul\":2498:2521   */\n      sub\n        /* \"#utility.yul\":2494:2526   */\n      slt\n        /* \"#utility.yul\":2491:2610   */\n      iszero\n      tag_160\n      jumpi\n        /* \"#utility.yul\":2529:2608   */\n      tag_161\n      tag_108\n      jump\t// in\n    tag_161:\n        /* \"#utility.yul\":2491:2610   */\n    tag_160:\n        /* \"#utility.yul\":2649:2650   */\n      0x00\n        /* \"#utility.yul\":2674:2727   */\n      tag_162\n        /* \"#utility.yul\":2719:2726   */\n      dup7\n        /* \"#utility.yul\":2710:2716   */\n      dup3\n        /* \"#utility.yul\":2699:2708   */\n      dup8\n        /* \"#utility.yul\":2695:2717   */\n      add\n        /* \"#utility.yul\":2674:2727   */\n      tag_111\n      jump\t// in\n    tag_162:\n        /* \"#utility.yul\":2664:2727   */\n      swap4\n      pop\n        /* \"#utility.yul\":2620:2737   */\n      pop\n        /* \"#utility.yul\":2776:2778   */\n      0x20\n        /* \"#utility.yul\":2802:2855   */\n      tag_163\n        /* \"#utility.yul\":2847:2854   */\n      dup7\n        /* \"#utility.yul\":2838:2844   */\n      dup3\n        /* \"#utility.yul\":2827:2836   */\n      dup8\n        /* \"#utility.yul\":2823:2845   */\n      add\n        /* \"#utility.yul\":2802:2855   */\n      tag_111\n      jump\t// in\n    tag_163:\n        /* \"#utility.yul\":2792:2855   */\n      swap3\n      pop\n        /* \"#utility.yul\":2747:2865   */\n      pop\n        /* \"#utility.yul\":2904:2906   */\n      0x40\n        /* \"#utility.yul\":2930:2983   */\n      tag_164\n        /* \"#utility.yul\":2975:2982   */\n      dup7\n        /* \"#utility.yul\":2966:2972   */\n      dup3\n        /* \"#utility.yul\":2955:2964   */\n      dup8\n        /* \"#utility.yul\":2951:2973   */\n      add\n        /* \"#utility.yul\":2930:2983   */\n      tag_114\n      jump\t// in\n    tag_164:\n        /* \"#utility.yul\":2920:2983   */\n      swap2\n      pop\n        /* \"#utility.yul\":2875:2993   */\n      pop\n        /* \"#utility.yul\":2381:3000   */\n      swap3\n      pop\n      swap3\n      pop\n      swap3\n      jump\t// out\n        /* \"#utility.yul\":3006:3335   */\n    tag_32:\n        /* \"#utility.yul\":3065:3071   */\n      0x00\n        /* \"#utility.yul\":3114:3116   */\n      0x20\n        /* \"#utility.yul\":3102:3111   */\n      dup3\n        /* \"#utility.yul\":3093:3100   */\n      dup5\n        /* \"#utility.yul\":3089:3112   */\n      sub\n        /* \"#utility.yul\":3085:3117   */\n      slt\n        /* \"#utility.yul\":3082:3201   */\n      iszero\n      tag_166\n      jumpi\n        /* \"#utility.yul\":3120:3199   */\n      tag_167\n      tag_108\n      jump\t// in\n    tag_167:\n        /* \"#utility.yul\":3082:3201   */\n    tag_166:\n        /* \"#utility.yul\":3240:3241   */\n      0x00\n        /* \"#utility.yul\":3265:3318   */\n      tag_168\n        /* \"#utility.yul\":3310:3317   */\n      dup5\n        /* \"#utility.yul\":3301:3307   */\n      dup3\n        /* \"#utility.yul\":3290:3299   */\n      dup6\n        /* \"#utility.yul\":3286:3308   */\n      add\n        /* \"#utility.yul\":3265:3318   */\n      tag_111\n      jump\t// in\n    tag_168:\n        /* \"#utility.yul\":3255:3318   */\n      swap2\n      pop\n        /* \"#utility.yul\":3211:3328   */\n      pop\n        /* \"#utility.yul\":3006:3335   */\n      swap3\n      swap2\n      pop\n      pop\n      jump\t// out\n        /* \"#utility.yul\":3341:3670   */\n    tag_40:\n        /* \"#utility.yul\":3400:3406   */\n      0x00\n        /* \"#utility.yul\":3449:3451   */\n      0x20\n        /* \"#utility.yul\":3437:3446   */\n      dup3\n        /* \"#utility.yul\":3428:3435   */\n      dup5\n        /* \"#utility.yul\":3424:3447   */\n      sub\n        /* \"#utility.yul\":3420:3452   */\n      slt\n        /* \"#utility.yul\":3417:3536   */\n      iszero\n      tag_170\n      jumpi\n        /* \"#utility.yul\":3455:3534   */\n      tag_171\n      tag_108\n      jump\t// in\n    tag_171:\n        /* \"#utility.yul\":3417:3536   */\n    tag_170:\n        /* \"#utility.yul\":3575:3576   */\n      0x00\n        /* \"#utility.yul\":3600:3653   */\n      tag_172\n        /* \"#utility.yul\":3645:3652   */\n      dup5\n        /* \"#utility.yul\":3636:3642   */\n      dup3\n        /* \"#utility.yul\":3625:3634   */\n      dup6\n        /* \"#utility.yul\":3621:3643   */\n      add\n        /* \"#utility.yul\":3600:3653   */\n      tag_114\n      jump\t// in\n    tag_172:\n        /* \"#utility.yul\":3590:3653   */\n      swap2\n      pop\n        /* \"#utility.yul\":3546:3663   */\n      pop\n        /* \"#utility.yul\":3341:3670   */\n      swap3\n      swap2\n      pop\n      pop\n      jump\t// out\n        /* \"#utility.yul\":3676:4150   */\n    tag_44:\n        /* \"#utility.yul\":3744:3750   */\n      0x00\n        /* \"#utility.yul\":3752:3758   */\n      dup1\n        /* \"#utility.yul\":3801:3803   */\n      0x40\n        /* \"#utility.yul\":3789:3798   */\n      dup4\n        /* \"#utility.yul\":3780:3787   */\n      dup6\n        /* \"#utility.yul\":3776:3799   */\n      sub\n        /* \"#utility.yul\":3772:3804   */\n      slt\n        /* \"#utility.yul\":3769:3888   */\n      iszero\n      tag_174\n      jumpi\n        /* \"#utility.yul\":3807:3886   */\n      tag_175\n      tag_108\n      jump\t// in\n    tag_175:\n        /* \"#utility.yul\":3769:3888   */\n    tag_174:\n        /* \"#utility.yul\":3927:3928   */\n      0x00\n        /* \"#utility.yul\":3952:4005   */\n      tag_176\n        /* \"#utility.yul\":3997:4004   */\n      dup6\n        /* \"#utility.yul\":3988:3994   */\n      dup3\n        /* \"#utility.yul\":3977:3986   */\n      dup7\n        /* \"#utility.yul\":3973:3995   */\n      add\n        /* \"#utility.yul\":3952:4005   */\n      tag_111\n      jump\t// in\n    tag_176:\n        /* \"#utility.yul\":3942:4005   */\n      swap3\n      pop\n        /* \"#utility.yul\":3898:4015   */\n      pop\n        /* \"#utility.yul\":4054:4056   */\n      0x20\n        /* \"#utility.yul\":4080:4133   */\n      tag_177\n        /* \"#utility.yul\":4125:4132   */\n      dup6\n        /* \"#utility.yul\":4116:4122   */\n      dup3\n        /* \"#utility.yul\":4105:4114   */\n      dup7\n        /* \"#utility.yul\":4101:4123   */\n      add\n        /* \"#utility.yul\":4080:4133   */\n      tag_111\n      jump\t// in\n    tag_177:\n        /* \"#utility.yul\":4070:4133   */\n      swap2\n      pop\n        /* \"#utility.yul\":4025:4143   */\n      pop\n        /* \"#utility.yul\":3676:4150   */\n      swap3\n      pop\n      swap3\n      swap1\n      pop\n      jump\t// out\n        /* \"#utility.yul\":4156:4325   */\n    tag_116:\n        /* \"#utility.yul\":4240:4251   */\n      0x00\n        /* \"#utility.yul\":4274:4280   */\n      dup3\n        /* \"#utility.yul\":4269:4272   */\n      dup3\n        /* \"#utility.yul\":4262:4281   */\n      mstore\n        /* \"#utility.yul\":4314:4318   */\n      0x20\n        /* \"#utility.yul\":4309:4312   */\n      dup3\n        /* \"#utility.yul\":4305:4319   */\n      add\n        /* \"#utility.yul\":4290:4319   */\n      swap1\n      pop\n        /* \"#utility.yul\":4156:4325   */\n      swap3\n      swap2\n      pop\n      pop\n      jump\t// out\n        /* \"#utility.yul\":4331:4496   */\n    tag_117:\n        /* \"#utility.yul\":4471:4488   */\n      0x496e76616c696420616464726573730000000000000000000000000000000000\n        /* \"#utility.yul\":4467:4468   */\n      0x00\n        /* \"#utility.yul\":4459:4465   */\n      dup3\n        /* \"#utility.yul\":4455:4469   */\n      add\n        /* \"#utility.yul\":4448:4489   */\n      mstore\n        /* \"#utility.yul\":4331:4496   */\n      pop\n      jump\t// out\n        /* \"#utility.yul\":4502:4868   */\n    tag_118:\n        /* \"#utility.yul\":4644:4647   */\n      0x00\n        /* \"#utility.yul\":4665:4732   */\n      tag_181\n        /* \"#utility.yul\":4729:4731   */\n      0x0f\n        /* \"#utility.yul\":4724:4727   */\n      dup4\n        /* \"#utility.yul\":4665:4732   */\n      tag_116\n      jump\t// in\n    tag_181:\n        /* \"#utility.yul\":4658:4732   */\n      swap2\n      pop\n        /* \"#utility.yul\":4741:4834   */\n      tag_182\n        /* \"#utility.yul\":4830:4833   */\n      dup3\n        /* \"#utility.yul\":4741:4834   */\n      tag_117\n      jump\t// in\n    tag_182:\n        /* \"#utility.yul\":4859:4861   */\n      0x20\n        /* \"#utility.yul\":4854:4857   */\n      dup3\n        /* \"#utility.yul\":4850:4862   */\n      add\n        /* \"#utility.yul\":4843:4862   */\n      swap1\n      pop\n        /* \"#utility.yul\":4502:4868   */\n      swap2\n      swap1\n      pop\n      jump\t// out\n        /* \"#utility.yul\":4874:5293   */\n    tag_56:\n        /* \"#utility.yul\":5040:5044   */\n      0x00\n        /* \"#utility.yul\":5078:5080   */\n      0x20\n        /* \"#utility.yul\":5067:5076   */\n      dup3\n        /* \"#utility.yul\":5063:5081   */\n      add\n        /* \"#utility.yul\":5055:5081   */\n      swap1\n      pop\n        /* \"#utility.yul\":5127:5136   */\n      dup2\n        /* \"#utility.yul\":5121:5125   */\n      dup2\n        /* \"#utility.yul\":5117:5137   */\n      sub\n        /* \"#utility.yul\":5113:5114   */\n      0x00\n        /* \"#utility.yul\":5102:5111   */\n      dup4\n        /* \"#utility.yul\":5098:5115   */\n      add\n        /* \"#utility.yul\":5091:5138   */\n      mstore\n        /* \"#utility.yul\":5155:5286   */\n      tag_184\n        /* \"#utility.yul\":5281:5285   */\n      dup2\n        /* \"#utility.yul\":5155:5286   */\n      tag_118\n      jump\t// in\n    tag_184:\n        /* \"#utility.yul\":5147:5286   */\n      swap1\n      pop\n        /* \"#utility.yul\":4874:5293   */\n      swap2\n      swap1\n      pop\n      jump\t// out\n        /* \"#utility.yul\":5299:5467   */\n    tag_119:\n        /* \"#utility.yul\":5439:5459   */\n      0x416c6c6f77616e63652065786365656465640000000000000000000000000000\n        /* \"#utility.yul\":5435:5436   */\n      0x00\n        /* \"#utility.yul\":5427:5433   */\n      dup3\n        /* \"#utility.yul\":5423:5437   */\n      add\n        /* \"#utility.yul\":5416:5460   */\n      mstore\n        /* \"#utility.yul\":5299:5467   */\n      pop\n      jump\t// out\n        /* \"#utility.yul\":5473:5839   */\n    tag_120:\n        /* \"#utility.yul\":5615:5618   */\n      0x00\n        /* \"#utility.yul\":5636:5703   */\n      tag_187\n        /* \"#utility.yul\":5700:5702   */\n      0x12\n        /* \"#utility.yul\":5695:5698   */\n      dup4\n        /* \"#utility.yul\":5636:5703   */\n      tag_116\n      jump\t// in\n    tag_187:\n        /* \"#utility.yul\":5629:5703   */\n      swap2\n      pop\n        /* \"#utility.yul\":5712:5805   */\n      tag_188\n        /* \"#utility.yul\":5801:5804   */\n      dup3\n        /* \"#utility.yul\":5712:5805   */\n      tag_119\n      jump\t// in\n    tag_188:\n        /* \"#utility.yul\":5830:5832   */\n      0x20\n        /* \"#utility.yul\":5825:5828   */\n      dup3\n        /* \"#utility.yul\":5821:5833   */\n      add\n        /* \"#utility.yul\":5814:5833   */\n      swap1\n      pop\n        /* \"#utility.yul\":5473:5839   */\n      swap2\n      swap1\n      pop\n      jump\t// out\n        /* \"#utility.yul\":5845:6264   */\n    tag_63:\n        /* \"#utility.yul\":6011:6015   */\n      0x00\n        /* \"#utility.yul\":6049:6051   */\n      0x20\n        /* \"#utility.yul\":6038:6047   */\n      dup3\n        /* \"#utility.yul\":6034:6052   */\n      add\n        /* \"#utility.yul\":6026:6052   */\n      swap1\n      pop\n        /* \"#utility.yul\":6098:6107   */\n      dup2\n        /* \"#utility.yul\":6092:6096   */\n      dup2\n        /* \"#utility.yul\":6088:6108   */\n      sub\n        /* \"#utility.yul\":6084:6085   */\n      0x00\n        /* \"#utility.yul\":6073:6082   */\n      dup4\n        /* \"#utility.yul\":6069:6086   */\n      add\n        /* \"#utility.yul\":6062:6109   */\n      mstore\n        /* \"#utility.yul\":6126:6257   */\n      tag_190\n        /* \"#utility.yul\":6252:6256   */\n      dup2\n        /* \"#utility.yul\":6126:6257   */\n      tag_120\n      jump\t// in\n    tag_190:\n        /* \"#utility.yul\":6118:6257   */\n      swap1\n      pop\n        /* \"#utility.yul\":5845:6264   */\n      swap2\n      swap1\n      pop\n      jump\t// out\n        /* \"#utility.yul\":6270:6440   */\n    tag_121:\n        /* \"#utility.yul\":6410:6432   */\n      0x496e73756666696369656e742062616c616e6365000000000000000000000000\n        /* \"#utility.yul\":6406:6407   */\n      0x00\n        /* \"#utility.yul\":6398:6404   */\n      dup3\n        /* \"#utility.yul\":6394:6408   */\n      add\n        /* \"#utility.yul\":6387:6433   */\n      mstore\n        /* \"#utility.yul\":6270:6440   */\n      pop\n      jump\t// out\n        /* \"#utility.yul\":6446:6812   */\n    tag_122:\n        /* \"#utility.yul\":6588:6591   */\n      0x00\n        /* \"#utility.yul\":6609:6676   */\n      tag_193\n        /* \"#utility.yul\":6673:6675   */\n      0x14\n        /* \"#utility.yul\":6668:6671   */\n      dup4\n        /* \"#utility.yul\":6609:6676   */\n      tag_116\n      jump\t// in\n    tag_193:\n        /* \"#utility.yul\":6602:6676   */\n      swap2\n      pop\n        /* \"#utility.yul\":6685:6778   */\n      tag_194\n        /* \"#utility.yul\":6774:6777   */\n      dup3\n        /* \"#utility.yul\":6685:6778   */\n      tag_121\n      jump\t// in\n    tag_194:\n        /* \"#utility.yul\":6803:6805   */\n      0x20\n        /* \"#utility.yul\":6798:6801   */\n      dup3\n        /* \"#utility.yul\":6794:6806   */\n      add\n        /* \"#utility.yul\":6787:6806   */\n      swap1\n      pop\n        /* \"#utility.yul\":6446:6812   */\n      swap2\n      swap1\n      pop\n      jump\t// out\n        /* \"#utility.yul\":6818:7237   */\n    tag_66:\n        /* \"#utility.yul\":6984:6988   */\n      0x00\n        /* \"#utility.yul\":7022:7024   */\n      0x20\n        /* \"#utility.yul\":7011:7020   */\n      dup3\n        /* \"#utility.yul\":7007:7025   */\n      add\n        /* \"#utility.yul\":6999:7025   */\n      swap1\n      pop\n        /* \"#utility.yul\":7071:7080   */\n      dup2\n        /* \"#utility.yul\":7065:7069   */\n      dup2\n        /* \"#utility.yul\":7061:7081   */\n      sub\n        /* \"#utility.yul\":7057:7058   */\n      0x00\n        /* \"#utility.yul\":7046:7055   */\n      dup4\n        /* \"#utility.yul\":7042:7059   */\n      add\n        /* \"#utility.yul\":7035:7082   */\n      mstore\n        /* \"#utility.yul\":7099:7230   */\n      tag_196\n        /* \"#utility.yul\":7225:7229   */\n      dup2\n        /* \"#utility.yul\":7099:7230   */\n      tag_122\n      jump\t// in\n    tag_196:\n        /* \"#utility.yul\":7091:7230   */\n      swap1\n      pop\n        /* \"#utility.yul\":6818:7237   */\n      swap2\n      swap1\n      pop\n      jump\t// out\n        /* \"#utility.yul\":7243:7423   */\n    tag_123:\n        /* \"#utility.yul\":7291:7368   */\n      0x4e487b7100000000000000000000000000000000000000000000000000000000\n        /* \"#utility.yul\":7288:7289   */\n      0x00\n        /* \"#utility.yul\":7281:7369   */\n      mstore\n        /* \"#utility.yul\":7388:7392   */\n      0x11\n        /* \"#utility.yul\":7385:7386   */\n      0x04\n        /* \"#utility.yul\":7378:7393   */\n      mstore\n        /* \"#utility.yul\":7412:7416   */\n      0x24\n        /* \"#utility.yul\":7409:7410   */\n      0x00\n        /* \"#utility.yul\":7402:7417   */\n      revert\n        /* \"#utility.yul\":7429:7623   */\n    tag_68:\n        /* \"#utility.yul\":7469:7473   */\n      0x00\n        /* \"#utility.yul\":7489:7509   */\n      tag_199\n        /* \"#utility.yul\":7507:7508   */\n      dup3\n        /* \"#utility.yul\":7489:7509   */\n      tag_112\n      jump\t// in\n    tag_199:\n        /* \"#utility.yul\":7484:7509   */\n      swap2\n      pop\n        /* \"#utility.yul\":7523:7543   */\n      tag_200\n        /* \"#utility.yul\":7541:7542   */\n      dup4\n        /* \"#utility.yul\":7523:7543   */\n      tag_112\n      jump\t// in\n    tag_200:\n        /* \"#utility.yul\":7518:7543   */\n      swap3\n      pop\n        /* \"#utility.yul\":7567:7568   */\n      dup3\n        /* \"#utility.yul\":7564:7565   */\n      dup3\n        /* \"#utility.yul\":7560:7569   */\n      sub\n        /* \"#utility.yul\":7552:7569   */\n      swap1\n      pop\n        /* \"#utility.yul\":7591:7592   */\n      dup2\n        /* \"#utility.yul\":7585:7589   */\n      dup2\n        /* \"#utility.yul\":7582:7593   */\n      gt\n        /* \"#utility.yul\":7579:7616   */\n      iszero\n      tag_201\n      jumpi\n        /* \"#utility.yul\":7596:7614   */\n      tag_202\n      tag_123\n      jump\t// in\n    tag_202:\n        /* \"#utility.yul\":7579:7616   */\n    tag_201:\n        /* \"#utility.yul\":7429:7623   */\n      swap3\n      swap2\n      pop\n      pop\n      jump\t// out\n        /* \"#utility.yul\":7629:7820   */\n    tag_71:\n        /* \"#utility.yul\":7669:7672   */\n      0x00\n        /* \"#utility.yul\":7688:7708   */\n      tag_204\n        /* \"#utility.yul\":7706:7707   */\n      dup3\n        /* \"#utility.yul\":7688:7708   */\n      tag_112\n      jump\t// in\n    tag_204:\n        /* \"#utility.yul\":7683:7708   */\n      swap2\n      pop\n        /* \"#utility.yul\":7722:7742   */\n      tag_205\n        /* \"#utility.yul\":7740:7741   */\n      dup4\n        /* \"#utility.yul\":7722:7742   */\n      tag_112\n      jump\t// in\n    tag_205:\n        /* \"#utility.yul\":7717:7742   */\n      swap3\n      pop\n        /* \"#utility.yul\":7765:7766   */\n      dup3\n        /* \"#utility.yul\":7762:7763   */\n      dup3\n        /* \"#utility.yul\":7758:7767   */\n      add\n        /* \"#utility.yul\":7751:7767   */\n      swap1\n      pop\n        /* \"#utility.yul\":7786:7789   */\n      dup1\n        /* \"#utility.yul\":7783:7784   */\n      dup3\n        /* \"#utility.yul\":7780:7790   */\n      gt\n        /* \"#utility.yul\":7777:7813   */\n      iszero\n      tag_206\n      jumpi\n        /* \"#utility.yul\":7793:7811   */\n      tag_207\n      tag_123\n      jump\t// in\n    tag_207:\n        /* \"#utility.yul\":7777:7813   */\n    tag_206:\n        /* \"#utility.yul\":7629:7820   */\n      swap3\n      swap2\n      pop\n      pop\n      jump\t// out\n        /* \"#utility.yul\":7826:8052   */\n    tag_124:\n        /* \"#utility.yul\":7966:8000   */\n      0x4f6e6c7920746865206d696e7465722063616e20706572666f726d2074686973\n        /* \"#utility.yul\":7962:7963   */\n      0x00\n        /* \"#utility.yul\":7954:7960   */\n      dup3\n        /* \"#utility.yul\":7950:7964   */\n      add\n        /* \"#utility.yul\":7943:8001   */\n      mstore\n        /* \"#utility.yul\":8035:8044   */\n      0x20616374696f6e00000000000000000000000000000000000000000000000000\n        /* \"#utility.yul\":8030:8032   */\n      0x20\n        /* \"#utility.yul\":8022:8028   */\n      dup3\n        /* \"#utility.yul\":8018:8033   */\n      add\n        /* \"#utility.yul\":8011:8045   */\n      mstore\n        /* \"#utility.yul\":7826:8052   */\n      pop\n      jump\t// out\n        /* \"#utility.yul\":8058:8424   */\n    tag_125:\n        /* \"#utility.yul\":8200:8203   */\n      0x00\n        /* \"#utility.yul\":8221:8288   */\n      tag_210\n        /* \"#utility.yul\":8285:8287   */\n      0x27\n        /* \"#utility.yul\":8280:8283   */\n      dup4\n        /* \"#utility.yul\":8221:8288   */\n      tag_116\n      jump\t// in\n    tag_210:\n        /* \"#utility.yul\":8214:8288   */\n      swap2\n      pop\n        /* \"#utility.yul\":8297:8390   */\n      tag_211\n        /* \"#utility.yul\":8386:8389   */\n      dup3\n        /* \"#utility.yul\":8297:8390   */\n      tag_124\n      jump\t// in\n    tag_211:\n        /* \"#utility.yul\":8415:8417   */\n      0x40\n        /* \"#utility.yul\":8410:8413   */\n      dup3\n        /* \"#utility.yul\":8406:8418   */\n      add\n        /* \"#utility.yul\":8399:8418   */\n      swap1\n      pop\n        /* \"#utility.yul\":8058:8424   */\n      swap2\n      swap1\n      pop\n      jump\t// out\n        /* \"#utility.yul\":8430:8849   */\n    tag_76:\n        /* \"#utility.yul\":8596:8600   */\n      0x00\n        /* \"#utility.yul\":8634:8636   */\n      0x20\n        /* \"#utility.yul\":8623:8632   */\n      dup3\n        /* \"#utility.yul\":8619:8637   */\n      add\n        /* \"#utility.yul\":8611:8637   */\n      swap1\n      pop\n        /* \"#utility.yul\":8683:8692   */\n      dup2\n        /* \"#utility.yul\":8677:8681   */\n      dup2\n        /* \"#utility.yul\":8673:8693   */\n      sub\n        /* \"#utility.yul\":8669:8670   */\n      0x00\n        /* \"#utility.yul\":8658:8667   */\n      dup4\n        /* \"#utility.yul\":8654:8671   */\n      add\n        /* \"#utility.yul\":8647:8694   */\n      mstore\n        /* \"#utility.yul\":8711:8842   */\n      tag_213\n        /* \"#utility.yul\":8837:8841   */\n      dup2\n        /* \"#utility.yul\":8711:8842   */\n      tag_125\n      jump\t// in\n    tag_213:\n        /* \"#utility.yul\":8703:8842   */\n      swap1\n      pop\n        /* \"#utility.yul\":8430:8849   */\n      swap2\n      swap1\n      pop\n      jump\t// out\n        /* \"#utility.yul\":8855:9033   */\n    tag_126:\n        /* \"#utility.yul\":8995:9025   */\n      0x496e73756666696369656e742062616c616e636520746f206275726e00000000\n        /* \"#utility.yul\":8991:8992   */\n      0x00\n        /* \"#utility.yul\":8983:8989   */\n      dup3\n        /* \"#utility.yul\":8979:8993   */\n      add\n        /* \"#utility.yul\":8972:9026   */\n      mstore\n        /* \"#utility.yul\":8855:9033   */\n      pop\n      jump\t// out\n        /* \"#utility.yul\":9039:9405   */\n    tag_127:\n        /* \"#utility.yul\":9181:9184   */\n      0x00\n        /* \"#utility.yul\":9202:9269   */\n      tag_216\n        /* \"#utility.yul\":9266:9268   */\n      0x1c\n        /* \"#utility.yul\":9261:9264   */\n      dup4\n        /* \"#utility.yul\":9202:9269   */\n      tag_116\n      jump\t// in\n    tag_216:\n        /* \"#utility.yul\":9195:9269   */\n      swap2\n      pop\n        /* \"#utility.yul\":9278:9371   */\n      tag_217\n        /* \"#utility.yul\":9367:9370   */\n      dup3\n        /* \"#utility.yul\":9278:9371   */\n      tag_126\n      jump\t// in\n    tag_217:\n        /* \"#utility.yul\":9396:9398   */\n      0x20\n        /* \"#utility.yul\":9391:9394   */\n      dup3\n        /* \"#utility.yul\":9387:9399   */\n      add\n        /* \"#utility.yul\":9380:9399   */\n      swap1\n      pop\n        /* \"#utility.yul\":9039:9405   */\n      swap2\n      swap1\n      pop\n      jump\t// out\n        /* \"#utility.yul\":9411:9830   */\n    tag_86:\n        /* \"#utility.yul\":9577:9581   */\n      0x00\n        /* \"#utility.yul\":9615:9617   */\n      0x20\n        /* \"#utility.yul\":9604:9613   */\n      dup3\n        /* \"#utility.yul\":9600:9618   */\n      add\n        /* \"#utility.yul\":9592:9618   */\n      swap1\n      pop\n        /* \"#utility.yul\":9664:9673   */\n      dup2\n        /* \"#utility.yul\":9658:9662   */\n      dup2\n        /* \"#utility.yul\":9654:9674   */\n      sub\n        /* \"#utility.yul\":9650:9651   */\n      0x00\n        /* \"#utility.yul\":9639:9648   */\n      dup4\n        /* \"#utility.yul\":9635:9652   */\n      add\n        /* \"#utility.yul\":9628:9675   */\n      mstore\n        /* \"#utility.yul\":9692:9823   */\n      tag_219\n        /* \"#utility.yul\":9818:9822   */\n      dup2\n        /* \"#utility.yul\":9692:9823   */\n      tag_127\n      jump\t// in\n    tag_219:\n        /* \"#utility.yul\":9684:9823   */\n      swap1\n      pop\n        /* \"#utility.yul\":9411:9830   */\n      swap2\n      swap1\n      pop\n      jump\t// out\n\n    auxdata: 0xa264697066735822122006937c8ddc99c9a4f4f4ac201fa36c66a40530366650380d3c9ab5879969232764736f6c634300081a0033\n}\n",
				"bytecode": {
					"linkReferences": {},
					"object": "6080604052348015600e575f80fd5b50335f806101000a81548173ffffffffffffffffffffffffffffffffffffffff021916908373ffffffffffffffffffffffffffffffffffffffff16021790555061128e8061005b5f395ff3fe608060405234801561000f575f80fd5b506004361061009c575f3560e01c806340c10f191161006457806340c10f191461014457806342966c681461016057806355b6ed5c1461017c578063a9059cbb146101ac578063f2fde38b146101c85761009c565b806307546172146100a0578063095ea7b3146100be57806318160ddd146100da57806323b872dd146100f857806327e235e314610114575b5f80fd5b6100a86101e4565b6040516100b59190610dc3565b60405180910390f35b6100d860048036038101906100d39190610e3d565b610207565b005b6100e261035b565b6040516100ef9190610e8a565b60405180910390f35b610112600480360381019061010d9190610ea3565b610361565b005b61012e60048036038101906101299190610ef3565b6106a8565b60405161013b9190610e8a565b60405180910390f35b61015e60048036038101906101599190610e3d565b6106bd565b005b61017a60048036038101906101759190610f1e565b610875565b005b61019660048036038101906101919190610f49565b6109b1565b6040516101a39190610e8a565b60405180910390f35b6101c660048036038101906101c19190610e3d565b6109d1565b005b6101e260048036038101906101dd9190610ef3565b610bce565b005b5f8054906101000a900473ffffffffffffffffffffffffffffffffffffffff1681565b5f73ffffffffffffffffffffffffffffffffffffffff168273ffffffffffffffffffffffffffffffffffffffff1603610275576040517f08c379a000000000000000000000000000000000000000000000000000000000815260040161026c90610fe1565b60405180910390fd5b8060035f3373ffffffffffffffffffffffffffffffffffffffff1673ffffffffffffffffffffffffffffffffffffffff1681526020019081526020015f205f8473ffffffffffffffffffffffffffffffffffffffff1673ffffffffffffffffffffffffffffffffffffffff1681526020019081526020015f20819055508173ffffffffffffffffffffffffffffffffffffffff163373ffffffffffffffffffffffffffffffffffffffff167f8c5be1e5ebec7d5bd14f71427d1e84f3dd0314c0f7b2291e5b200ac8c7c3b9258360405161034f9190610e8a565b60405180910390a35050565b60015481565b5f73ffffffffffffffffffffffffffffffffffffffff168273ffffffffffffffffffffffffffffffffffffffff16036103cf576040517f08c379a00000000000000000000000000000000000000000000000000000000081526004016103c690610fe1565b60405180910390fd5b8060035f8573ffffffffffffffffffffffffffffffffffffffff1673ffffffffffffffffffffffffffffffffffffffff1681526020019081526020015f205f3373ffffffffffffffffffffffffffffffffffffffff1673ffffffffffffffffffffffffffffffffffffffff1681526020019081526020015f2054101561048a576040517f08c379a000000000000000000000000000000000000000000000000000000000815260040161048190611049565b60405180910390fd5b8060025f8573ffffffffffffffffffffffffffffffffffffffff1673ffffffffffffffffffffffffffffffffffffffff1681526020019081526020015f2054101561050a576040517f08c379a0000000000000000000000000000000000000000000000000000000008152600401610501906110b1565b60405180910390fd5b8060025f8573ffffffffffffffffffffffffffffffffffffffff1673ffffffffffffffffffffffffffffffffffffffff1681526020019081526020015f205f82825461055691906110fc565b925050819055508060035f8573ffffffffffffffffffffffffffffffffffffffff1673ffffffffffffffffffffffffffffffffffffffff1681526020019081526020015f205f3373ffffffffffffffffffffffffffffffffffffffff1673ffffffffffffffffffffffffffffffffffffffff1681526020019081526020015f205f8282546105e491906110fc565b925050819055508060025f8473ffffffffffffffffffffffffffffffffffffffff1673ffffffffffffffffffffffffffffffffffffffff1681526020019081526020015f205f828254610637919061112f565b925050819055508173ffffffffffffffffffffffffffffffffffffffff168373ffffffffffffffffffffffffffffffffffffffff167f3990db2d31862302a685e8086b5755072a6e2b5b780af1ee81ece35ee3cd33458360405161069b9190610e8a565b60405180910390a3505050565b6002602052805f5260405f205f915090505481565b5f8054906101000a900473ffffffffffffffffffffffffffffffffffffffff1673ffffffffffffffffffffffffffffffffffffffff163373ffffffffffffffffffffffffffffffffffffffff161461074a576040517f08c379a0000000000000000000000000000000000000000000000000000000008152600401610741906111d2565b60405180910390fd5b5f73ffffffffffffffffffffffffffffffffffffffff168273ffffffffffffffffffffffffffffffffffffffff16036107b8576040517f08c379a00000000000000000000000000000000000000000000000000000000081526004016107af90610fe1565b60405180910390fd5b8060025f8473ffffffffffffffffffffffffffffffffffffffff1673ffffffffffffffffffffffffffffffffffffffff1681526020019081526020015f205f828254610804919061112f565b925050819055508060015f82825461081c919061112f565b925050819055508173ffffffffffffffffffffffffffffffffffffffff167f0f6798a560793a54c3bcfe86a93cde1e73087d944c0ea20544137d4121396885826040516108699190610e8a565b60405180910390a25050565b8060025f3373ffffffffffffffffffffffffffffffffffffffff1673ffffffffffffffffffffffffffffffffffffffff1681526020019081526020015f205410156108f5576040517f08c379a00000000000000000000000000000000000000000000000000000000081526004016108ec9061123a565b60405180910390fd5b8060025f3373ffffffffffffffffffffffffffffffffffffffff1673ffffffffffffffffffffffffffffffffffffffff1681526020019081526020015f205f82825461094191906110fc565b925050819055508060015f82825461095991906110fc565b925050819055503373ffffffffffffffffffffffffffffffffffffffff167fcc16f5dbb4873280815c1ee09dbd06736cffcc184412cf7a71a0fdb75d397ca5826040516109a69190610e8a565b60405180910390a250565b6003602052815f5260405f20602052805f5260405f205f91509150505481565b5f73ffffffffffffffffffffffffffffffffffffffff168273ffffffffffffffffffffffffffffffffffffffff1603610a3f576040517f08c379a0000000000000000000000000000000000000000000000000000000008152600401610a3690610fe1565b60405180910390fd5b8060025f3373ffffffffffffffffffffffffffffffffffffffff1673ffffffffffffffffffffffffffffffffffffffff1681526020019081526020015f20541015610abf576040517f08c379a0000000000000000000000000000000000000000000000000000000008152600401610ab6906110b1565b60405180910390fd5b8060025f3373ffffffffffffffffffffffffffffffffffffffff1673ffffffffffffffffffffffffffffffffffffffff1681526020019081526020015f205f828254610b0b91906110fc565b925050819055508060025f8473ffffffffffffffffffffffffffffffffffffffff1673ffffffffffffffffffffffffffffffffffffffff1681526020019081526020015f205f828254610b5e919061112f565b925050819055508173ffffffffffffffffffffffffffffffffffffffff163373ffffffffffffffffffffffffffffffffffffffff167f3990db2d31862302a685e8086b5755072a6e2b5b780af1ee81ece35ee3cd334583604051610bc29190610e8a565b60405180910390a35050565b5f8054906101000a900473ffffffffffffffffffffffffffffffffffffffff1673ffffffffffffffffffffffffffffffffffffffff163373ffffffffffffffffffffffffffffffffffffffff1614610c5b576040517f08c379a0000000000000000000000000000000000000000000000000000000008152600401610c52906111d2565b60405180910390fd5b5f73ffffffffffffffffffffffffffffffffffffffff168173ffffffffffffffffffffffffffffffffffffffff1603610cc9576040517f08c379a0000000000000000000000000000000000000000000000000000000008152600401610cc090610fe1565b60405180910390fd5b8073ffffffffffffffffffffffffffffffffffffffff165f8054906101000a900473ffffffffffffffffffffffffffffffffffffffff1673ffffffffffffffffffffffffffffffffffffffff167f8be0079c531659141344cd1fd0a4f28419497f9722a3daafe3b4186f6b6457e060405160405180910390a3805f806101000a81548173ffffffffffffffffffffffffffffffffffffffff021916908373ffffffffffffffffffffffffffffffffffffffff16021790555050565b5f73ffffffffffffffffffffffffffffffffffffffff82169050919050565b5f610dad82610d84565b9050919050565b610dbd81610da3565b82525050565b5f602082019050610dd65f830184610db4565b92915050565b5f80fd5b610de981610da3565b8114610df3575f80fd5b50565b5f81359050610e0481610de0565b92915050565b5f819050919050565b610e1c81610e0a565b8114610e26575f80fd5b50565b5f81359050610e3781610e13565b92915050565b5f8060408385031215610e5357610e52610ddc565b5b5f610e6085828601610df6565b9250506020610e7185828601610e29565b9150509250929050565b610e8481610e0a565b82525050565b5f602082019050610e9d5f830184610e7b565b92915050565b5f805f60608486031215610eba57610eb9610ddc565b5b5f610ec786828701610df6565b9350506020610ed886828701610df6565b9250506040610ee986828701610e29565b9150509250925092565b5f60208284031215610f0857610f07610ddc565b5b5f610f1584828501610df6565b91505092915050565b5f60208284031215610f3357610f32610ddc565b5b5f610f4084828501610e29565b91505092915050565b5f8060408385031215610f5f57610f5e610ddc565b5b5f610f6c85828601610df6565b9250506020610f7d85828601610df6565b9150509250929050565b5f82825260208201905092915050565b7f496e76616c6964206164647265737300000000000000000000000000000000005f82015250565b5f610fcb600f83610f87565b9150610fd682610f97565b602082019050919050565b5f6020820190508181035f830152610ff881610fbf565b9050919050565b7f416c6c6f77616e636520657863656564656400000000000000000000000000005f82015250565b5f611033601283610f87565b915061103e82610fff565b602082019050919050565b5f6020820190508181035f83015261106081611027565b9050919050565b7f496e73756666696369656e742062616c616e63650000000000000000000000005f82015250565b5f61109b601483610f87565b91506110a682611067565b602082019050919050565b5f6020820190508181035f8301526110c88161108f565b9050919050565b7f4e487b71000000000000000000000000000000000000000000000000000000005f52601160045260245ffd5b5f61110682610e0a565b915061111183610e0a565b9250828203905081811115611129576111286110cf565b5b92915050565b5f61113982610e0a565b915061114483610e0a565b925082820190508082111561115c5761115b6110cf565b5b92915050565b7f4f6e6c7920746865206d696e7465722063616e20706572666f726d20746869735f8201527f20616374696f6e00000000000000000000000000000000000000000000000000602082015250565b5f6111bc602783610f87565b91506111c782611162565b604082019050919050565b5f6020820190508181035f8301526111e9816111b0565b9050919050565b7f496e73756666696369656e742062616c616e636520746f206275726e000000005f82015250565b5f611224601c83610f87565b915061122f826111f0565b602082019050919050565b5f6020820190508181035f83015261125181611218565b905091905056fea264697066735822122006937c8ddc99c9a4f4f4ac201fa36c66a40530366650380d3c9ab5879969232764736f6c634300081a0033",
					"opcodes": "PUSH1 0x80 PUSH1 0x40 MSTORE CALLVALUE DUP1 ISZERO PUSH1 0xE JUMPI PUSH0 DUP1 REVERT JUMPDEST POP CALLER PUSH0 DUP1 PUSH2 0x100 EXP DUP2 SLOAD DUP2 PUSH20 0xFFFFFFFFFFFFFFFFFFFFFFFFFFFFFFFFFFFFFFFF MUL NOT AND SWAP1 DUP4 PUSH20 0xFFFFFFFFFFFFFFFFFFFFFFFFFFFFFFFFFFFFFFFF AND MUL OR SWAP1 SSTORE POP PUSH2 0x128E DUP1 PUSH2 0x5B PUSH0 CODECOPY PUSH0 RETURN INVALID PUSH1 0x80 PUSH1 0x40 MSTORE CALLVALUE DUP1 ISZERO PUSH2 0xF JUMPI PUSH0 DUP1 REVERT JUMPDEST POP PUSH1 0x4 CALLDATASIZE LT PUSH2 0x9C JUMPI PUSH0 CALLDATALOAD PUSH1 0xE0 SHR DUP1 PUSH4 0x40C10F19 GT PUSH2 0x64 JUMPI DUP1 PUSH4 0x40C10F19 EQ PUSH2 0x144 JUMPI DUP1 PUSH4 0x42966C68 EQ PUSH2 0x160 JUMPI DUP1 PUSH4 0x55B6ED5C EQ PUSH2 0x17C JUMPI DUP1 PUSH4 0xA9059CBB EQ PUSH2 0x1AC JUMPI DUP1 PUSH4 0xF2FDE38B EQ PUSH2 0x1C8 JUMPI PUSH2 0x9C JUMP JUMPDEST DUP1 PUSH4 0x7546172 EQ PUSH2 0xA0 JUMPI DUP1 PUSH4 0x95EA7B3 EQ PUSH2 0xBE JUMPI DUP1 PUSH4 0x18160DDD EQ PUSH2 0xDA JUMPI DUP1 PUSH4 0x23B872DD EQ PUSH2 0xF8 JUMPI DUP1 PUSH4 0x27E235E3 EQ PUSH2 0x114 JUMPI JUMPDEST PUSH0 DUP1 REVERT JUMPDEST PUSH2 0xA8 PUSH2 0x1E4 JUMP JUMPDEST PUSH1 0x40 MLOAD PUSH2 0xB5 SWAP2 SWAP1 PUSH2 0xDC3 JUMP JUMPDEST PUSH1 0x40 MLOAD DUP1 SWAP2 SUB SWAP1 RETURN JUMPDEST PUSH2 0xD8 PUSH1 0x4 DUP1 CALLDATASIZE SUB DUP2 ADD SWAP1 PUSH2 0xD3 SWAP2 SWAP1 PUSH2 0xE3D JUMP JUMPDEST PUSH2 0x207 JUMP JUMPDEST STOP JUMPDEST PUSH2 0xE2 PUSH2 0x35B JUMP JUMPDEST PUSH1 0x40 MLOAD PUSH2 0xEF SWAP2 SWAP1 PUSH2 0xE8A JUMP JUMPDEST PUSH1 0x40 MLOAD DUP1 SWAP2 SUB SWAP1 RETURN JUMPDEST PUSH2 0x112 PUSH1 0x4 DUP1 CALLDATASIZE SUB DUP2 ADD SWAP1 PUSH2 0x10D SWAP2 SWAP1 PUSH2 0xEA3 JUMP JUMPDEST PUSH2 0x361 JUMP JUMPDEST STOP JUMPDEST PUSH2 0x12E PUSH1 0x4 DUP1 CALLDATASIZE SUB DUP2 ADD SWAP1 PUSH2 0x129 SWAP2 SWAP1 PUSH2 0xEF3 JUMP JUMPDEST PUSH2 0x6A8 JUMP JUMPDEST PUSH1 0x40 MLOAD PUSH2 0x13B SWAP2 SWAP1 PUSH2 0xE8A JUMP JUMPDEST PUSH1 0x40 MLOAD DUP1 SWAP2 SUB SWAP1 RETURN JUMPDEST PUSH2 0x15E PUSH1 0x4 DUP1 CALLDATASIZE SUB DUP2 ADD SWAP1 PUSH2 0x159 SWAP2 SWAP1 PUSH2 0xE3D JUMP JUMPDEST PUSH2 0x6BD JUMP JUMPDEST STOP JUMPDEST PUSH2 0x17A PUSH1 0x4 DUP1 CALLDATASIZE SUB DUP2 ADD SWAP1 PUSH2 0x175 SWAP2 SWAP1 PUSH2 0xF1E JUMP JUMPDEST PUSH2 0x875 JUMP JUMPDEST STOP JUMPDEST PUSH2 0x196 PUSH1 0x4 DUP1 CALLDATASIZE SUB DUP2 ADD SWAP1 PUSH2 0x191 SWAP2 SWAP1 PUSH2 0xF49 JUMP JUMPDEST PUSH2 0x9B1 JUMP JUMPDEST PUSH1 0x40 MLOAD PUSH2 0x1A3 SWAP2 SWAP1 PUSH2 0xE8A JUMP JUMPDEST PUSH1 0x40 MLOAD DUP1 SWAP2 SUB SWAP1 RETURN JUMPDEST PUSH2 0x1C6 PUSH1 0x4 DUP1 CALLDATASIZE SUB DUP2 ADD SWAP1 PUSH2 0x1C1 SWAP2 SWAP1 PUSH2 0xE3D JUMP JUMPDEST PUSH2 0x9D1 JUMP JUMPDEST STOP JUMPDEST PUSH2 0x1E2 PUSH1 0x4 DUP1 CALLDATASIZE SUB DUP2 ADD SWAP1 PUSH2 0x1DD SWAP2 SWAP1 PUSH2 0xEF3 JUMP JUMPDEST PUSH2 0xBCE JUMP JUMPDEST STOP JUMPDEST PUSH0 DUP1 SLOAD SWAP1 PUSH2 0x100 EXP SWAP1 DIV PUSH20 0xFFFFFFFFFFFFFFFFFFFFFFFFFFFFFFFFFFFFFFFF AND DUP2 JUMP JUMPDEST PUSH0 PUSH20 0xFFFFFFFFFFFFFFFFFFFFFFFFFFFFFFFFFFFFFFFF AND DUP3 PUSH20 0xFFFFFFFFFFFFFFFFFFFFFFFFFFFFFFFFFFFFFFFF AND SUB PUSH2 0x275 JUMPI PUSH1 0x40 MLOAD PUSH32 0x8C379A000000000000000000000000000000000000000000000000000000000 DUP2 MSTORE PUSH1 0x4 ADD PUSH2 0x26C SWAP1 PUSH2 0xFE1 JUMP JUMPDEST PUSH1 0x40 MLOAD DUP1 SWAP2 SUB SWAP1 REVERT JUMPDEST DUP1 PUSH1 0x3 PUSH0 CALLER PUSH20 0xFFFFFFFFFFFFFFFFFFFFFFFFFFFFFFFFFFFFFFFF AND PUSH20 0xFFFFFFFFFFFFFFFFFFFFFFFFFFFFFFFFFFFFFFFF AND DUP2 MSTORE PUSH1 0x20 ADD SWAP1 DUP2 MSTORE PUSH1 0x20 ADD PUSH0 KECCAK256 PUSH0 DUP5 PUSH20 0xFFFFFFFFFFFFFFFFFFFFFFFFFFFFFFFFFFFFFFFF AND PUSH20 0xFFFFFFFFFFFFFFFFFFFFFFFFFFFFFFFFFFFFFFFF AND DUP2 MSTORE PUSH1 0x20 ADD SWAP1 DUP2 MSTORE PUSH1 0x20 ADD PUSH0 KECCAK256 DUP2 SWAP1 SSTORE POP DUP2 PUSH20 0xFFFFFFFFFFFFFFFFFFFFFFFFFFFFFFFFFFFFFFFF AND CALLER PUSH20 0xFFFFFFFFFFFFFFFFFFFFFFFFFFFFFFFFFFFFFFFF AND PUSH32 0x8C5BE1E5EBEC7D5BD14F71427D1E84F3DD0314C0F7B2291E5B200AC8C7C3B925 DUP4 PUSH1 0x40 MLOAD PUSH2 0x34F SWAP2 SWAP1 PUSH2 0xE8A JUMP JUMPDEST PUSH1 0x40 MLOAD DUP1 SWAP2 SUB SWAP1 LOG3 POP POP JUMP JUMPDEST PUSH1 0x1 SLOAD DUP2 JUMP JUMPDEST PUSH0 PUSH20 0xFFFFFFFFFFFFFFFFFFFFFFFFFFFFFFFFFFFFFFFF AND DUP3 PUSH20 0xFFFFFFFFFFFFFFFFFFFFFFFFFFFFFFFFFFFFFFFF AND SUB PUSH2 0x3CF JUMPI PUSH1 0x40 MLOAD PUSH32 0x8C379A000000000000000000000000000000000000000000000000000000000 DUP2 MSTORE PUSH1 0x4 ADD PUSH2 0x3C6 SWAP1 PUSH2 0xFE1 JUMP JUMPDEST PUSH1 0x40 MLOAD DUP1 SWAP2 SUB SWAP1 REVERT JUMPDEST DUP1 PUSH1 0x3 PUSH0 DUP6 PUSH20 0xFFFFFFFFFFFFFFFFFFFFFFFFFFFFFFFFFFFFFFFF AND PUSH20 0xFFFFFFFFFFFFFFFFFFFFFFFFFFFFFFFFFFFFFFFF AND DUP2 MSTORE PUSH1 0x20 ADD SWAP1 DUP2 MSTORE PUSH1 0x20 ADD PUSH0 KECCAK256 PUSH0 CALLER PUSH20 0xFFFFFFFFFFFFFFFFFFFFFFFFFFFFFFFFFFFFFFFF AND PUSH20 0xFFFFFFFFFFFFFFFFFFFFFFFFFFFFFFFFFFFFFFFF AND DUP2 MSTORE PUSH1 0x20 ADD SWAP1 DUP2 MSTORE PUSH1 0x20 ADD PUSH0 KECCAK256 SLOAD LT ISZERO PUSH2 0x48A JUMPI PUSH1 0x40 MLOAD PUSH32 0x8C379A000000000000000000000000000000000000000000000000000000000 DUP2 MSTORE PUSH1 0x4 ADD PUSH2 0x481 SWAP1 PUSH2 0x1049 JUMP JUMPDEST PUSH1 0x40 MLOAD DUP1 SWAP2 SUB SWAP1 REVERT JUMPDEST DUP1 PUSH1 0x2 PUSH0 DUP6 PUSH20 0xFFFFFFFFFFFFFFFFFFFFFFFFFFFFFFFFFFFFFFFF AND PUSH20 0xFFFFFFFFFFFFFFFFFFFFFFFFFFFFFFFFFFFFFFFF AND DUP2 MSTORE PUSH1 0x20 ADD SWAP1 DUP2 MSTORE PUSH1 0x20 ADD PUSH0 KECCAK256 SLOAD LT ISZERO PUSH2 0x50A JUMPI PUSH1 0x40 MLOAD PUSH32 0x8C379A000000000000000000000000000000000000000000000000000000000 DUP2 MSTORE PUSH1 0x4 ADD PUSH2 0x501 SWAP1 PUSH2 0x10B1 JUMP JUMPDEST PUSH1 0x40 MLOAD DUP1 SWAP2 SUB SWAP1 REVERT JUMPDEST DUP1 PUSH1 0x2 PUSH0 DUP6 PUSH20 0xFFFFFFFFFFFFFFFFFFFFFFFFFFFFFFFFFFFFFFFF AND PUSH20 0xFFFFFFFFFFFFFFFFFFFFFFFFFFFFFFFFFFFFFFFF AND DUP2 MSTORE PUSH1 0x20 ADD SWAP1 DUP2 MSTORE PUSH1 0x20 ADD PUSH0 KECCAK256 PUSH0 DUP3 DUP3 SLOAD PUSH2 0x556 SWAP2 SWAP1 PUSH2 0x10FC JUMP JUMPDEST SWAP3 POP POP DUP2 SWAP1 SSTORE POP DUP1 PUSH1 0x3 PUSH0 DUP6 PUSH20 0xFFFFFFFFFFFFFFFFFFFFFFFFFFFFFFFFFFFFFFFF AND PUSH20 0xFFFFFFFFFFFFFFFFFFFFFFFFFFFFFFFFFFFFFFFF AND DUP2 MSTORE PUSH1 0x20 ADD SWAP1 DUP2 MSTORE PUSH1 0x20 ADD PUSH0 KECCAK256 PUSH0 CALLER PUSH20 0xFFFFFFFFFFFFFFFFFFFFFFFFFFFFFFFFFFFFFFFF AND PUSH20 0xFFFFFFFFFFFFFFFFFFFFFFFFFFFFFFFFFFFFFFFF AND DUP2 MSTORE PUSH1 0x20 ADD SWAP1 DUP2 MSTORE PUSH1 0x20 ADD PUSH0 KECCAK256 PUSH0 DUP3 DUP3 SLOAD PUSH2 0x5E4 SWAP2 SWAP1 PUSH2 0x10FC JUMP JUMPDEST SWAP3 POP POP DUP2 SWAP1 SSTORE POP DUP1 PUSH1 0x2 PUSH0 DUP5 PUSH20 0xFFFFFFFFFFFFFFFFFFFFFFFFFFFFFFFFFFFFFFFF AND PUSH20 0xFFFFFFFFFFFFFFFFFFFFFFFFFFFFFFFFFFFFFFFF AND DUP2 MSTORE PUSH1 0x20 ADD SWAP1 DUP2 MSTORE PUSH1 0x20 ADD PUSH0 KECCAK256 PUSH0 DUP3 DUP3 SLOAD PUSH2 0x637 SWAP2 SWAP1 PUSH2 0x112F JUMP JUMPDEST SWAP3 POP POP DUP2 SWAP1 SSTORE POP DUP2 PUSH20 0xFFFFFFFFFFFFFFFFFFFFFFFFFFFFFFFFFFFFFFFF AND DUP4 PUSH20 0xFFFFFFFFFFFFFFFFFFFFFFFFFFFFFFFFFFFFFFFF AND PUSH32 0x3990DB2D31862302A685E8086B5755072A6E2B5B780AF1EE81ECE35EE3CD3345 DUP4 PUSH1 0x40 MLOAD PUSH2 0x69B SWAP2 SWAP1 PUSH2 0xE8A JUMP JUMPDEST PUSH1 0x40 MLOAD DUP1 SWAP2 SUB SWAP1 LOG3 POP POP POP JUMP JUMPDEST PUSH1 0x2 PUSH1 0x20 MSTORE DUP1 PUSH0 MSTORE PUSH1 0x40 PUSH0 KECCAK256 PUSH0 SWAP2 POP SWAP1 POP SLOAD DUP2 JUMP JUMPDEST PUSH0 DUP1 SLOAD SWAP1 PUSH2 0x100 EXP SWAP1 DIV PUSH20 0xFFFFFFFFFFFFFFFFFFFFFFFFFFFFFFFFFFFFFFFF AND PUSH20 0xFFFFFFFFFFFFFFFFFFFFFFFFFFFFFFFFFFFFFFFF AND CALLER PUSH20 0xFFFFFFFFFFFFFFFFFFFFFFFFFFFFFFFFFFFFFFFF AND EQ PUSH2 0x74A JUMPI PUSH1 0x40 MLOAD PUSH32 0x8C379A000000000000000000000000000000000000000000000000000000000 DUP2 MSTORE PUSH1 0x4 ADD PUSH2 0x741 SWAP1 PUSH2 0x11D2 JUMP JUMPDEST PUSH1 0x40 MLOAD DUP1 SWAP2 SUB SWAP1 REVERT JUMPDEST PUSH0 PUSH20 0xFFFFFFFFFFFFFFFFFFFFFFFFFFFFFFFFFFFFFFFF AND DUP3 PUSH20 0xFFFFFFFFFFFFFFFFFFFFFFFFFFFFFFFFFFFFFFFF AND SUB PUSH2 0x7B8 JUMPI PUSH1 0x40 MLOAD PUSH32 0x8C379A000000000000000000000000000000000000000000000000000000000 DUP2 MSTORE PUSH1 0x4 ADD PUSH2 0x7AF SWAP1 PUSH2 0xFE1 JUMP JUMPDEST PUSH1 0x40 MLOAD DUP1 SWAP2 SUB SWAP1 REVERT JUMPDEST DUP1 PUSH1 0x2 PUSH0 DUP5 PUSH20 0xFFFFFFFFFFFFFFFFFFFFFFFFFFFFFFFFFFFFFFFF AND PUSH20 0xFFFFFFFFFFFFFFFFFFFFFFFFFFFFFFFFFFFFFFFF AND DUP2 MSTORE PUSH1 0x20 ADD SWAP1 DUP2 MSTORE PUSH1 0x20 ADD PUSH0 KECCAK256 PUSH0 DUP3 DUP3 SLOAD PUSH2 0x804 SWAP2 SWAP1 PUSH2 0x112F JUMP JUMPDEST SWAP3 POP POP DUP2 SWAP1 SSTORE POP DUP1 PUSH1 0x1 PUSH0 DUP3 DUP3 SLOAD PUSH2 0x81C SWAP2 SWAP1 PUSH2 0x112F JUMP JUMPDEST SWAP3 POP POP DUP2 SWAP1 SSTORE POP DUP2 PUSH20 0xFFFFFFFFFFFFFFFFFFFFFFFFFFFFFFFFFFFFFFFF AND PUSH32 0xF6798A560793A54C3BCFE86A93CDE1E73087D944C0EA20544137D4121396885 DUP3 PUSH1 0x40 MLOAD PUSH2 0x869 SWAP2 SWAP1 PUSH2 0xE8A JUMP JUMPDEST PUSH1 0x40 MLOAD DUP1 SWAP2 SUB SWAP1 LOG2 POP POP JUMP JUMPDEST DUP1 PUSH1 0x2 PUSH0 CALLER PUSH20 0xFFFFFFFFFFFFFFFFFFFFFFFFFFFFFFFFFFFFFFFF AND PUSH20 0xFFFFFFFFFFFFFFFFFFFFFFFFFFFFFFFFFFFFFFFF AND DUP2 MSTORE PUSH1 0x20 ADD SWAP1 DUP2 MSTORE PUSH1 0x20 ADD PUSH0 KECCAK256 SLOAD LT ISZERO PUSH2 0x8F5 JUMPI PUSH1 0x40 MLOAD PUSH32 0x8C379A000000000000000000000000000000000000000000000000000000000 DUP2 MSTORE PUSH1 0x4 ADD PUSH2 0x8EC SWAP1 PUSH2 0x123A JUMP JUMPDEST PUSH1 0x40 MLOAD DUP1 SWAP2 SUB SWAP1 REVERT JUMPDEST DUP1 PUSH1 0x2 PUSH0 CALLER PUSH20 0xFFFFFFFFFFFFFFFFFFFFFFFFFFFFFFFFFFFFFFFF AND PUSH20 0xFFFFFFFFFFFFFFFFFFFFFFFFFFFFFFFFFFFFFFFF AND DUP2 MSTORE PUSH1 0x20 ADD SWAP1 DUP2 MSTORE PUSH1 0x20 ADD PUSH0 KECCAK256 PUSH0 DUP3 DUP3 SLOAD PUSH2 0x941 SWAP2 SWAP1 PUSH2 0x10FC JUMP JUMPDEST SWAP3 POP POP DUP2 SWAP1 SSTORE POP DUP1 PUSH1 0x1 PUSH0 DUP3 DUP3 SLOAD PUSH2 0x959 SWAP2 SWAP1 PUSH2 0x10FC JUMP JUMPDEST SWAP3 POP POP DUP2 SWAP1 SSTORE POP CALLER PUSH20 0xFFFFFFFFFFFFFFFFFFFFFFFFFFFFFFFFFFFFFFFF AND PUSH32 0xCC16F5DBB4873280815C1EE09DBD06736CFFCC184412CF7A71A0FDB75D397CA5 DUP3 PUSH1 0x40 MLOAD PUSH2 0x9A6 SWAP2 SWAP1 PUSH2 0xE8A JUMP JUMPDEST PUSH1 0x40 MLOAD DUP1 SWAP2 SUB SWAP1 LOG2 POP JUMP JUMPDEST PUSH1 0x3 PUSH1 0x20 MSTORE DUP2 PUSH0 MSTORE PUSH1 0x40 PUSH0 KECCAK256 PUSH1 0x20 MSTORE DUP1 PUSH0 MSTORE PUSH1 0x40 PUSH0 KECCAK256 PUSH0 SWAP2 POP SWAP2 POP POP SLOAD DUP2 JUMP JUMPDEST PUSH0 PUSH20 0xFFFFFFFFFFFFFFFFFFFFFFFFFFFFFFFFFFFFFFFF AND DUP3 PUSH20 0xFFFFFFFFFFFFFFFFFFFFFFFFFFFFFFFFFFFFFFFF AND SUB PUSH2 0xA3F JUMPI PUSH1 0x40 MLOAD PUSH32 0x8C379A000000000000000000000000000000000000000000000000000000000 DUP2 MSTORE PUSH1 0x4 ADD PUSH2 0xA36 SWAP1 PUSH2 0xFE1 JUMP JUMPDEST PUSH1 0x40 MLOAD DUP1 SWAP2 SUB SWAP1 REVERT JUMPDEST DUP1 PUSH1 0x2 PUSH0 CALLER PUSH20 0xFFFFFFFFFFFFFFFFFFFFFFFFFFFFFFFFFFFFFFFF AND PUSH20 0xFFFFFFFFFFFFFFFFFFFFFFFFFFFFFFFFFFFFFFFF AND DUP2 MSTORE PUSH1 0x20 ADD SWAP1 DUP2 MSTORE PUSH1 0x20 ADD PUSH0 KECCAK256 SLOAD LT ISZERO PUSH2 0xABF JUMPI PUSH1 0x40 MLOAD PUSH32 0x8C379A000000000000000000000000000000000000000000000000000000000 DUP2 MSTORE PUSH1 0x4 ADD PUSH2 0xAB6 SWAP1 PUSH2 0x10B1 JUMP JUMPDEST PUSH1 0x40 MLOAD DUP1 SWAP2 SUB SWAP1 REVERT JUMPDEST DUP1 PUSH1 0x2 PUSH0 CALLER PUSH20 0xFFFFFFFFFFFFFFFFFFFFFFFFFFFFFFFFFFFFFFFF AND PUSH20 0xFFFFFFFFFFFFFFFFFFFFFFFFFFFFFFFFFFFFFFFF AND DUP2 MSTORE PUSH1 0x20 ADD SWAP1 DUP2 MSTORE PUSH1 0x20 ADD PUSH0 KECCAK256 PUSH0 DUP3 DUP3 SLOAD PUSH2 0xB0B SWAP2 SWAP1 PUSH2 0x10FC JUMP JUMPDEST SWAP3 POP POP DUP2 SWAP1 SSTORE POP DUP1 PUSH1 0x2 PUSH0 DUP5 PUSH20 0xFFFFFFFFFFFFFFFFFFFFFFFFFFFFFFFFFFFFFFFF AND PUSH20 0xFFFFFFFFFFFFFFFFFFFFFFFFFFFFFFFFFFFFFFFF AND DUP2 MSTORE PUSH1 0x20 ADD SWAP1 DUP2 MSTORE PUSH1 0x20 ADD PUSH0 KECCAK256 PUSH0 DUP3 DUP3 SLOAD PUSH2 0xB5E SWAP2 SWAP1 PUSH2 0x112F JUMP JUMPDEST SWAP3 POP POP DUP2 SWAP1 SSTORE POP DUP2 PUSH20 0xFFFFFFFFFFFFFFFFFFFFFFFFFFFFFFFFFFFFFFFF AND CALLER PUSH20 0xFFFFFFFFFFFFFFFFFFFFFFFFFFFFFFFFFFFFFFFF AND PUSH32 0x3990DB2D31862302A685E8086B5755072A6E2B5B780AF1EE81ECE35EE3CD3345 DUP4 PUSH1 0x40 MLOAD PUSH2 0xBC2 SWAP2 SWAP1 PUSH2 0xE8A JUMP JUMPDEST PUSH1 0x40 MLOAD DUP1 SWAP2 SUB SWAP1 LOG3 POP POP JUMP JUMPDEST PUSH0 DUP1 SLOAD SWAP1 PUSH2 0x100 EXP SWAP1 DIV PUSH20 0xFFFFFFFFFFFFFFFFFFFFFFFFFFFFFFFFFFFFFFFF AND PUSH20 0xFFFFFFFFFFFFFFFFFFFFFFFFFFFFFFFFFFFFFFFF AND CALLER PUSH20 0xFFFFFFFFFFFFFFFFFFFFFFFFFFFFFFFFFFFFFFFF AND EQ PUSH2 0xC5B JUMPI PUSH1 0x40 MLOAD PUSH32 0x8C379A000000000000000000000000000000000000000000000000000000000 DUP2 MSTORE PUSH1 0x4 ADD PUSH2 0xC52 SWAP1 PUSH2 0x11D2 JUMP JUMPDEST PUSH1 0x40 MLOAD DUP1 SWAP2 SUB SWAP1 REVERT JUMPDEST PUSH0 PUSH20 0xFFFFFFFFFFFFFFFFFFFFFFFFFFFFFFFFFFFFFFFF AND DUP2 PUSH20 0xFFFFFFFFFFFFFFFFFFFFFFFFFFFFFFFFFFFFFFFF AND SUB PUSH2 0xCC9 JUMPI PUSH1 0x40 MLOAD PUSH32 0x8C379A000000000000000000000000000000000000000000000000000000000 DUP2 MSTORE PUSH1 0x4 ADD PUSH2 0xCC0 SWAP1 PUSH2 0xFE1 JUMP JUMPDEST PUSH1 0x40 MLOAD DUP1 SWAP2 SUB SWAP1 REVERT JUMPDEST DUP1 PUSH20 0xFFFFFFFFFFFFFFFFFFFFFFFFFFFFFFFFFFFFFFFF AND PUSH0 DUP1 SLOAD SWAP1 PUSH2 0x100 EXP SWAP1 DIV PUSH20 0xFFFFFFFFFFFFFFFFFFFFFFFFFFFFFFFFFFFFFFFF AND PUSH20 0xFFFFFFFFFFFFFFFFFFFFFFFFFFFFFFFFFFFFFFFF AND PUSH32 0x8BE0079C531659141344CD1FD0A4F28419497F9722A3DAAFE3B4186F6B6457E0 PUSH1 0x40 MLOAD PUSH1 0x40 MLOAD DUP1 SWAP2 SUB SWAP1 LOG3 DUP1 PUSH0 DUP1 PUSH2 0x100 EXP DUP2 SLOAD DUP2 PUSH20 0xFFFFFFFFFFFFFFFFFFFFFFFFFFFFFFFFFFFFFFFF MUL NOT AND SWAP1 DUP4 PUSH20 0xFFFFFFFFFFFFFFFFFFFFFFFFFFFFFFFFFFFFFFFF AND MUL OR SWAP1 SSTORE POP POP JUMP JUMPDEST PUSH0 PUSH20 0xFFFFFFFFFFFFFFFFFFFFFFFFFFFFFFFFFFFFFFFF DUP3 AND SWAP1 POP SWAP2 SWAP1 POP JUMP JUMPDEST PUSH0 PUSH2 0xDAD DUP3 PUSH2 0xD84 JUMP JUMPDEST SWAP1 POP SWAP2 SWAP1 POP JUMP JUMPDEST PUSH2 0xDBD DUP2 PUSH2 0xDA3 JUMP JUMPDEST DUP3 MSTORE POP POP JUMP JUMPDEST PUSH0 PUSH1 0x20 DUP3 ADD SWAP1 POP PUSH2 0xDD6 PUSH0 DUP4 ADD DUP5 PUSH2 0xDB4 JUMP JUMPDEST SWAP3 SWAP2 POP POP JUMP JUMPDEST PUSH0 DUP1 REVERT JUMPDEST PUSH2 0xDE9 DUP2 PUSH2 0xDA3 JUMP JUMPDEST DUP2 EQ PUSH2 0xDF3 JUMPI PUSH0 DUP1 REVERT JUMPDEST POP JUMP JUMPDEST PUSH0 DUP2 CALLDATALOAD SWAP1 POP PUSH2 0xE04 DUP2 PUSH2 0xDE0 JUMP JUMPDEST SWAP3 SWAP2 POP POP JUMP JUMPDEST PUSH0 DUP2 SWAP1 POP SWAP2 SWAP1 POP JUMP JUMPDEST PUSH2 0xE1C DUP2 PUSH2 0xE0A JUMP JUMPDEST DUP2 EQ PUSH2 0xE26 JUMPI PUSH0 DUP1 REVERT JUMPDEST POP JUMP JUMPDEST PUSH0 DUP2 CALLDATALOAD SWAP1 POP PUSH2 0xE37 DUP2 PUSH2 0xE13 JUMP JUMPDEST SWAP3 SWAP2 POP POP JUMP JUMPDEST PUSH0 DUP1 PUSH1 0x40 DUP4 DUP6 SUB SLT ISZERO PUSH2 0xE53 JUMPI PUSH2 0xE52 PUSH2 0xDDC JUMP JUMPDEST JUMPDEST PUSH0 PUSH2 0xE60 DUP6 DUP3 DUP7 ADD PUSH2 0xDF6 JUMP JUMPDEST SWAP3 POP POP PUSH1 0x20 PUSH2 0xE71 DUP6 DUP3 DUP7 ADD PUSH2 0xE29 JUMP JUMPDEST SWAP2 POP POP SWAP3 POP SWAP3 SWAP1 POP JUMP JUMPDEST PUSH2 0xE84 DUP2 PUSH2 0xE0A JUMP JUMPDEST DUP3 MSTORE POP POP JUMP JUMPDEST PUSH0 PUSH1 0x20 DUP3 ADD SWAP1 POP PUSH2 0xE9D PUSH0 DUP4 ADD DUP5 PUSH2 0xE7B JUMP JUMPDEST SWAP3 SWAP2 POP POP JUMP JUMPDEST PUSH0 DUP1 PUSH0 PUSH1 0x60 DUP5 DUP7 SUB SLT ISZERO PUSH2 0xEBA JUMPI PUSH2 0xEB9 PUSH2 0xDDC JUMP JUMPDEST JUMPDEST PUSH0 PUSH2 0xEC7 DUP7 DUP3 DUP8 ADD PUSH2 0xDF6 JUMP JUMPDEST SWAP4 POP POP PUSH1 0x20 PUSH2 0xED8 DUP7 DUP3 DUP8 ADD PUSH2 0xDF6 JUMP JUMPDEST SWAP3 POP POP PUSH1 0x40 PUSH2 0xEE9 DUP7 DUP3 DUP8 ADD PUSH2 0xE29 JUMP JUMPDEST SWAP2 POP POP SWAP3 POP SWAP3 POP SWAP3 JUMP JUMPDEST PUSH0 PUSH1 0x20 DUP3 DUP5 SUB SLT ISZERO PUSH2 0xF08 JUMPI PUSH2 0xF07 PUSH2 0xDDC JUMP JUMPDEST JUMPDEST PUSH0 PUSH2 0xF15 DUP5 DUP3 DUP6 ADD PUSH2 0xDF6 JUMP JUMPDEST SWAP2 POP POP SWAP3 SWAP2 POP POP JUMP JUMPDEST PUSH0 PUSH1 0x20 DUP3 DUP5 SUB SLT ISZERO PUSH2 0xF33 JUMPI PUSH2 0xF32 PUSH2 0xDDC JUMP JUMPDEST JUMPDEST PUSH0 PUSH2 0xF40 DUP5 DUP3 DUP6 ADD PUSH2 0xE29 JUMP JUMPDEST SWAP2 POP POP SWAP3 SWAP2 POP POP JUMP JUMPDEST PUSH0 DUP1 PUSH1 0x40 DUP4 DUP6 SUB SLT ISZERO PUSH2 0xF5F JUMPI PUSH2 0xF5E PUSH2 0xDDC JUMP JUMPDEST JUMPDEST PUSH0 PUSH2 0xF6C DUP6 DUP3 DUP7 ADD PUSH2 0xDF6 JUMP JUMPDEST SWAP3 POP POP PUSH1 0x20 PUSH2 0xF7D DUP6 DUP3 DUP7 ADD PUSH2 0xDF6 JUMP JUMPDEST SWAP2 POP POP SWAP3 POP SWAP3 SWAP1 POP JUMP JUMPDEST PUSH0 DUP3 DUP3 MSTORE PUSH1 0x20 DUP3 ADD SWAP1 POP SWAP3 SWAP2 POP POP JUMP JUMPDEST PUSH32 0x496E76616C696420616464726573730000000000000000000000000000000000 PUSH0 DUP3 ADD MSTORE POP JUMP JUMPDEST PUSH0 PUSH2 0xFCB PUSH1 0xF DUP4 PUSH2 0xF87 JUMP JUMPDEST SWAP2 POP PUSH2 0xFD6 DUP3 PUSH2 0xF97 JUMP JUMPDEST PUSH1 0x20 DUP3 ADD SWAP1 POP SWAP2 SWAP1 POP JUMP JUMPDEST PUSH0 PUSH1 0x20 DUP3 ADD SWAP1 POP DUP2 DUP2 SUB PUSH0 DUP4 ADD MSTORE PUSH2 0xFF8 DUP2 PUSH2 0xFBF JUMP JUMPDEST SWAP1 POP SWAP2 SWAP1 POP JUMP JUMPDEST PUSH32 0x416C6C6F77616E63652065786365656465640000000000000000000000000000 PUSH0 DUP3 ADD MSTORE POP JUMP JUMPDEST PUSH0 PUSH2 0x1033 PUSH1 0x12 DUP4 PUSH2 0xF87 JUMP JUMPDEST SWAP2 POP PUSH2 0x103E DUP3 PUSH2 0xFFF JUMP JUMPDEST PUSH1 0x20 DUP3 ADD SWAP1 POP SWAP2 SWAP1 POP JUMP JUMPDEST PUSH0 PUSH1 0x20 DUP3 ADD SWAP1 POP DUP2 DUP2 SUB PUSH0 DUP4 ADD MSTORE PUSH2 0x1060 DUP2 PUSH2 0x1027 JUMP JUMPDEST SWAP1 POP SWAP2 SWAP1 POP JUMP JUMPDEST PUSH32 0x496E73756666696369656E742062616C616E6365000000000000000000000000 PUSH0 DUP3 ADD MSTORE POP JUMP JUMPDEST PUSH0 PUSH2 0x109B PUSH1 0x14 DUP4 PUSH2 0xF87 JUMP JUMPDEST SWAP2 POP PUSH2 0x10A6 DUP3 PUSH2 0x1067 JUMP JUMPDEST PUSH1 0x20 DUP3 ADD SWAP1 POP SWAP2 SWAP1 POP JUMP JUMPDEST PUSH0 PUSH1 0x20 DUP3 ADD SWAP1 POP DUP2 DUP2 SUB PUSH0 DUP4 ADD MSTORE PUSH2 0x10C8 DUP2 PUSH2 0x108F JUMP JUMPDEST SWAP1 POP SWAP2 SWAP1 POP JUMP JUMPDEST PUSH32 0x4E487B7100000000000000000000000000000000000000000000000000000000 PUSH0 MSTORE PUSH1 0x11 PUSH1 0x4 MSTORE PUSH1 0x24 PUSH0 REVERT JUMPDEST PUSH0 PUSH2 0x1106 DUP3 PUSH2 0xE0A JUMP JUMPDEST SWAP2 POP PUSH2 0x1111 DUP4 PUSH2 0xE0A JUMP JUMPDEST SWAP3 POP DUP3 DUP3 SUB SWAP1 POP DUP2 DUP2 GT ISZERO PUSH2 0x1129 JUMPI PUSH2 0x1128 PUSH2 0x10CF JUMP JUMPDEST JUMPDEST SWAP3 SWAP2 POP POP JUMP JUMPDEST PUSH0 PUSH2 0x1139 DUP3 PUSH2 0xE0A JUMP JUMPDEST SWAP2 POP PUSH2 0x1144 DUP4 PUSH2 0xE0A JUMP JUMPDEST SWAP3 POP DUP3 DUP3 ADD SWAP1 POP DUP1 DUP3 GT ISZERO PUSH2 0x115C JUMPI PUSH2 0x115B PUSH2 0x10CF JUMP JUMPDEST JUMPDEST SWAP3 SWAP2 POP POP JUMP JUMPDEST PUSH32 0x4F6E6C7920746865206D696E7465722063616E20706572666F726D2074686973 PUSH0 DUP3 ADD MSTORE PUSH32 0x20616374696F6E00000000000000000000000000000000000000000000000000 PUSH1 0x20 DUP3 ADD MSTORE POP JUMP JUMPDEST PUSH0 PUSH2 0x11BC PUSH1 0x27 DUP4 PUSH2 0xF87 JUMP JUMPDEST SWAP2 POP PUSH2 0x11C7 DUP3 PUSH2 0x1162 JUMP JUMPDEST PUSH1 0x40 DUP3 ADD SWAP1 POP SWAP2 SWAP1 POP JUMP JUMPDEST PUSH0 PUSH1 0x20 DUP3 ADD SWAP1 POP DUP2 DUP2 SUB PUSH0 DUP4 ADD MSTORE PUSH2 0x11E9 DUP2 PUSH2 0x11B0 JUMP JUMPDEST SWAP1 POP SWAP2 SWAP1 POP JUMP JUMPDEST PUSH32 0x496E73756666696369656E742062616C616E636520746F206275726E00000000 PUSH0 DUP3 ADD MSTORE POP JUMP JUMPDEST PUSH0 PUSH2 0x1224 PUSH1 0x1C DUP4 PUSH2 0xF87 JUMP JUMPDEST SWAP2 POP PUSH2 0x122F DUP3 PUSH2 0x11F0 JUMP JUMPDEST PUSH1 0x20 DUP3 ADD SWAP1 POP SWAP2 SWAP1 POP JUMP JUMPDEST PUSH0 PUSH1 0x20 DUP3 ADD SWAP1 POP DUP2 DUP2 SUB PUSH0 DUP4 ADD MSTORE PUSH2 0x1251 DUP2 PUSH2 0x1218 JUMP JUMPDEST SWAP1 POP SWAP2 SWAP1 POP JUMP INVALID LOG2 PUSH5 0x6970667358 0x22 SLT KECCAK256 MOD SWAP4 PUSH29 0x8DDC99C9A4F4F4AC201FA36C66A40530366650380D3C9AB58799692327 PUSH5 0x736F6C6343 STOP ADDMOD BYTE STOP CALLER "
				},
				"gasEstimates": {
					"creation": {
						"codeDepositCost": "950000",
						"executionCost": "25251",
						"totalCost": "975251"
					},
					"external": {
						"allowances(address,address)": "infinite",
						"approve(address,uint256)": "infinite",
						"balances(address)": "2891",
						"burn(uint256)": "infinite",
						"mint(address,uint256)": "infinite",
						"minter()": "2506",
						"totalSupply()": "2470",
						"transfer(address,uint256)": "infinite",
						"transferFrom(address,address,uint256)": "infinite",
						"transferOwnership(address)": "30680"
					}
				},
				"methodIdentifiers": {
					"allowances(address,address)": "55b6ed5c",
					"approve(address,uint256)": "095ea7b3",
					"balances(address)": "27e235e3",
					"burn(uint256)": "42966c68",
					"mint(address,uint256)": "40c10f19",
					"minter()": "07546172",
					"totalSupply()": "18160ddd",
					"transfer(address,uint256)": "a9059cbb",
					"transferFrom(address,address,uint256)": "23b872dd",
					"transferOwnership(address)": "f2fde38b"
				}
			},
			"storageLayout": {
				"storage": [
					{
						"astId": 3,
						"contract": "subcurrency.sol:Coin",
						"label": "minter",
						"offset": 0,
						"slot": "0",
						"type": "t_address"
					},
					{
						"astId": 5,
						"contract": "subcurrency.sol:Coin",
						"label": "totalSupply",
						"offset": 0,
						"slot": "1",
						"type": "t_uint256"
					},
					{
						"astId": 9,
						"contract": "subcurrency.sol:Coin",
						"label": "balances",
						"offset": 0,
						"slot": "2",
						"type": "t_mapping(t_address,t_uint256)"
					},
					{
						"astId": 15,
						"contract": "subcurrency.sol:Coin",
						"label": "allowances",
						"offset": 0,
						"slot": "3",
						"type": "t_mapping(t_address,t_mapping(t_address,t_uint256))"
					}
				],
				"types": {
					"t_address": {
						"encoding": "inplace",
						"label": "address",
						"numberOfBytes": "20"
					},
					"t_mapping(t_address,t_mapping(t_address,t_uint256))": {
						"encoding": "mapping",
						"key": "t_address",
						"label": "mapping(address => mapping(address => uint256))",
						"numberOfBytes": "32",
						"value": "t_mapping(t_address,t_uint256)"
					},
					"t_mapping(t_address,t_uint256)": {
						"encoding": "mapping",
						"key": "t_address",
						"label": "mapping(address => uint256)",
						"numberOfBytes": "32",
						"value": "t_uint256"
					},
					"t_uint256": {
						"encoding": "inplace",
						"label": "uint256",
						"numberOfBytes": "32"
					}
				}
			},
			"userdoc": {
				"kind": "user",
				"methods": {},
				"version": 1
			}
		}
	}
}